{
  "abi": [
    {
      "inputs": [
        {
          "internalType": "int256",
          "name": "pricce",
          "type": "int256"
        }
      ],
      "name": "changePrice",
      "outputs": [
        {
          "internalType": "int256",
          "name": "",
          "type": "int256"
        }
      ],
      "stateMutability": "nonpayable",
      "type": "function"
    },
    {
      "inputs": [],
      "name": "latestRoundData",
      "outputs": [
        {
          "internalType": "uint80",
          "name": "roundId",
          "type": "uint80"
        },
        {
          "internalType": "int256",
          "name": "answer",
          "type": "int256"
        },
        {
          "internalType": "uint256",
          "name": "startedAt",
          "type": "uint256"
        },
        {
          "internalType": "uint256",
          "name": "updatedAt",
          "type": "uint256"
        },
        {
          "internalType": "uint80",
          "name": "answeredInRound",
          "type": "uint80"
        }
      ],
      "stateMutability": "view",
      "type": "function"
    }
  ],
  "bytecode": {
    "object": "0x60806040526407664c2f8060005534801561001957600080fd5b5060d9806100286000396000f3fe6080604052348015600f57600080fd5b506004361060325760003560e01c8063a5dc83d6146037578063feaf968c14605d575b600080fd5b604a6042366004608b565b600081905590565b6040519081526020015b60405180910390f35b60008054604080518381526020810192909252810182905260608101829052608081019190915260a0016054565b600060208284031215609c57600080fd5b503591905056fea2646970667358221220098ad4e17a55521c22adb6ace7123c4f4f5e533806ebd4013ee6f07dad3ba87764736f6c63430008140033",
    "linkReferences": {}
  },
  "methodIdentifiers": {
    "changePrice(int256)": "a5dc83d6",
    "latestRoundData()": "feaf968c"
  },
  "id": 33
}