{
  "src/Mock/ChainLinkMock.sol": {
    "MockPriceFeed": {
      "abi": [
        {
          "inputs": [
            {
              "internalType": "int256",
              "name": "pricce",
              "type": "int256"
            }
          ],
          "name": "changePrice",
          "outputs": [
            {
              "internalType": "int256",
              "name": "",
              "type": "int256"
            }
          ],
          "stateMutability": "nonpayable",
          "type": "function"
        },
        {
          "inputs": [],
          "name": "latestRoundData",
          "outputs": [
            {
              "internalType": "uint80",
              "name": "roundId",
              "type": "uint80"
            },
            {
              "internalType": "int256",
              "name": "answer",
              "type": "int256"
            },
            {
              "internalType": "uint256",
              "name": "startedAt",
              "type": "uint256"
            },
            {
              "internalType": "uint256",
              "name": "updatedAt",
              "type": "uint256"
            },
            {
              "internalType": "uint80",
              "name": "answeredInRound",
              "type": "uint80"
            }
          ],
          "stateMutability": "view",
          "type": "function"
        }
      ],
      "userdoc": {},
      "devdoc": {},
      "evm": {
        "bytecode": {
          "object": "60806040526407664c2f8060005534801561001957600080fd5b5060d9806100286000396000f3fe6080604052348015600f57600080fd5b506004361060325760003560e01c8063a5dc83d6146037578063feaf968c14605d575b600080fd5b604a6042366004608b565b600081905590565b6040519081526020015b60405180910390f35b60008054604080518381526020810192909252810182905260608101829052608081019190915260a0016054565b600060208284031215609c57600080fd5b503591905056fea2646970667358221220098ad4e17a55521c22adb6ace7123c4f4f5e533806ebd4013ee6f07dad3ba87764736f6c63430008140033",
          "opcodes": "PUSH1 0x80 PUSH1 0x40 MSTORE PUSH5 0x7664C2F80 PUSH1 0x0 SSTORE CALLVALUE DUP1 ISZERO PUSH2 0x19 JUMPI PUSH1 0x0 DUP1 REVERT JUMPDEST POP PUSH1 0xD9 DUP1 PUSH2 0x28 PUSH1 0x0 CODECOPY PUSH1 0x0 RETURN INVALID PUSH1 0x80 PUSH1 0x40 MSTORE CALLVALUE DUP1 ISZERO PUSH1 0xF JUMPI PUSH1 0x0 DUP1 REVERT JUMPDEST POP PUSH1 0x4 CALLDATASIZE LT PUSH1 0x32 JUMPI PUSH1 0x0 CALLDATALOAD PUSH1 0xE0 SHR DUP1 PUSH4 0xA5DC83D6 EQ PUSH1 0x37 JUMPI DUP1 PUSH4 0xFEAF968C EQ PUSH1 0x5D JUMPI JUMPDEST PUSH1 0x0 DUP1 REVERT JUMPDEST PUSH1 0x4A PUSH1 0x42 CALLDATASIZE PUSH1 0x4 PUSH1 0x8B JUMP JUMPDEST PUSH1 0x0 DUP2 SWAP1 SSTORE SWAP1 JUMP JUMPDEST PUSH1 0x40 MLOAD SWAP1 DUP2 MSTORE PUSH1 0x20 ADD JUMPDEST PUSH1 0x40 MLOAD DUP1 SWAP2 SUB SWAP1 RETURN JUMPDEST PUSH1 0x0 DUP1 SLOAD PUSH1 0x40 DUP1 MLOAD DUP4 DUP2 MSTORE PUSH1 0x20 DUP2 ADD SWAP3 SWAP1 SWAP3 MSTORE DUP2 ADD DUP3 SWAP1 MSTORE PUSH1 0x60 DUP2 ADD DUP3 SWAP1 MSTORE PUSH1 0x80 DUP2 ADD SWAP2 SWAP1 SWAP2 MSTORE PUSH1 0xA0 ADD PUSH1 0x54 JUMP JUMPDEST PUSH1 0x0 PUSH1 0x20 DUP3 DUP5 SUB SLT ISZERO PUSH1 0x9C JUMPI PUSH1 0x0 DUP1 REVERT JUMPDEST POP CALLDATALOAD SWAP2 SWAP1 POP JUMP INVALID LOG2 PUSH5 0x6970667358 0x22 SLT KECCAK256 MULMOD DUP11 0xD4 0xE1 PUSH27 0x55521C22ADB6ACE7123C4F4F5E533806EBD4013EE6F07DAD3BA877 PUSH5 0x736F6C6343 STOP ADDMOD EQ STOP CALLER ",
          "linkReferences": {}
        },
        "methodIdentifiers": {
          "changePrice(int256)": "a5dc83d6",
          "latestRoundData()": "feaf968c"
        }
      }
    }
  }
}