{
  "abi": [
    {
      "inputs": [
        {
          "internalType": "address",
          "name": "_uSDToken",
          "type": "address"
        }
      ],
      "stateMutability": "nonpayable",
      "type": "constructor"
    },
    {
      "inputs": [
        {
          "internalType": "address",
          "name": "target",
          "type": "address"
        }
      ],
      "name": "AddressEmptyCode",
      "type": "error"
    },
    {
      "inputs": [
        {
          "internalType": "address",
          "name": "account",
          "type": "address"
        }
      ],
      "name": "AddressInsufficientBalance",
      "type": "error"
    },
    {
      "inputs": [
        {
          "internalType": "string",
          "name": "NoInterests",
          "type": "string"
        }
      ],
      "name": "BadDebt",
      "type": "error"
    },
    {
      "inputs": [
        {
          "internalType": "string",
          "name": "failed",
          "type": "string"
        }
      ],
      "name": "ChainLinkFailed",
      "type": "error"
    },
    {
      "inputs": [],
      "name": "FailedInnerCall",
      "type": "error"
    },
    {
      "inputs": [
        {
          "internalType": "address",
          "name": "owner",
          "type": "address"
        }
      ],
      "name": "OwnableInvalidOwner",
      "type": "error"
    },
    {
      "inputs": [
        {
          "internalType": "address",
          "name": "account",
          "type": "address"
        }
      ],
      "name": "OwnableUnauthorizedAccount",
      "type": "error"
    },
    {
      "inputs": [],
      "name": "ReentrancyGuardReentrantCall",
      "type": "error"
    },
    {
      "inputs": [
        {
          "internalType": "address",
          "name": "token",
          "type": "address"
        }
      ],
      "name": "SafeERC20FailedOperation",
      "type": "error"
    },
    {
      "anonymous": false,
      "inputs": [
        {
          "indexed": true,
          "internalType": "address",
          "name": "user_",
          "type": "address"
        },
        {
          "indexed": false,
          "internalType": "uint256",
          "name": "amount_",
          "type": "uint256"
        }
      ],
      "name": "BORROWED",
      "type": "event"
    },
    {
      "anonymous": false,
      "inputs": [
        {
          "indexed": true,
          "internalType": "address",
          "name": "token_",
          "type": "address"
        },
        {
          "indexed": true,
          "internalType": "address",
          "name": "user_",
          "type": "address"
        },
        {
          "indexed": false,
          "internalType": "uint256",
          "name": "amount_",
          "type": "uint256"
        }
      ],
      "name": "DEPOSITED",
      "type": "event"
    },
    {
      "anonymous": false,
      "inputs": [
        {
          "indexed": true,
          "internalType": "address",
          "name": "token_",
          "type": "address"
        },
        {
          "indexed": true,
          "internalType": "address",
          "name": "user_",
          "type": "address"
        },
        {
          "indexed": false,
          "internalType": "uint256",
          "name": "amount_",
          "type": "uint256"
        }
      ],
      "name": "LIQUIDATED",
      "type": "event"
    },
    {
      "anonymous": false,
      "inputs": [
        {
          "indexed": true,
          "internalType": "address",
          "name": "previousOwner",
          "type": "address"
        },
        {
          "indexed": true,
          "internalType": "address",
          "name": "newOwner",
          "type": "address"
        }
      ],
      "name": "OwnershipTransferred",
      "type": "event"
    },
    {
      "anonymous": false,
      "inputs": [
        {
          "indexed": true,
          "internalType": "address",
          "name": "token_",
          "type": "address"
        },
        {
          "indexed": true,
          "internalType": "address",
          "name": "user_",
          "type": "address"
        },
        {
          "indexed": false,
          "internalType": "uint256",
          "name": "amount_",
          "type": "uint256"
        }
      ],
      "name": "REPAYED",
      "type": "event"
    },
    {
      "anonymous": false,
      "inputs": [
        {
          "indexed": false,
          "internalType": "address",
          "name": "token_",
          "type": "address"
        }
      ],
      "name": "WHITELISTED",
      "type": "event"
    },
    {
      "anonymous": false,
      "inputs": [
        {
          "indexed": true,
          "internalType": "address",
          "name": "token_",
          "type": "address"
        },
        {
          "indexed": true,
          "internalType": "address",
          "name": "user_",
          "type": "address"
        },
        {
          "indexed": false,
          "internalType": "uint256",
          "name": "amount_",
          "type": "uint256"
        }
      ],
      "name": "WITHDRAWED",
      "type": "event"
    },
    {
      "inputs": [],
      "name": "BORROW_RATE",
      "outputs": [
        {
          "internalType": "uint256",
          "name": "",
          "type": "uint256"
        }
      ],
      "stateMutability": "view",
      "type": "function"
    },
    {
      "inputs": [],
      "name": "COLLATERAL_FACTOR",
      "outputs": [
        {
          "internalType": "uint256",
          "name": "",
          "type": "uint256"
        }
      ],
      "stateMutability": "view",
      "type": "function"
    },
    {
      "inputs": [],
      "name": "LIQUIDATION_FACTOR",
      "outputs": [
        {
          "internalType": "uint256",
          "name": "",
          "type": "uint256"
        }
      ],
      "stateMutability": "view",
      "type": "function"
    },
    {
      "inputs": [],
      "name": "LIQUIDATION_REWARDS",
      "outputs": [
        {
          "internalType": "uint256",
          "name": "",
          "type": "uint256"
        }
      ],
      "stateMutability": "view",
      "type": "function"
    },
    {
      "inputs": [
        {
          "internalType": "uint256",
          "name": "amount",
          "type": "uint256"
        },
        {
          "internalType": "address",
          "name": "token",
          "type": "address"
        }
      ],
      "name": "borrow",
      "outputs": [],
      "stateMutability": "nonpayable",
      "type": "function"
    },
    {
      "inputs": [
        {
          "internalType": "uint256",
          "name": "collateralValue",
          "type": "uint256"
        },
        {
          "internalType": "address",
          "name": "token",
          "type": "address"
        },
        {
          "internalType": "uint256",
          "name": "amountToBorrow",
          "type": "uint256"
        },
        {
          "internalType": "uint256",
          "name": "oldBorrow",
          "type": "uint256"
        }
      ],
      "name": "borrowAllowed",
      "outputs": [
        {
          "internalType": "bool",
          "name": "allow",
          "type": "bool"
        }
      ],
      "stateMutability": "view",
      "type": "function"
    },
    {
      "inputs": [
        {
          "internalType": "address",
          "name": "token",
          "type": "address"
        },
        {
          "internalType": "uint256",
          "name": "amount",
          "type": "uint256"
        }
      ],
      "name": "deposit",
      "outputs": [],
      "stateMutability": "nonpayable",
      "type": "function"
    },
    {
      "inputs": [
        {
          "internalType": "uint256",
          "name": "collateralValue",
          "type": "uint256"
        },
        {
          "internalType": "address",
          "name": "token",
          "type": "address"
        }
      ],
      "name": "getUSDvalue",
      "outputs": [
        {
          "internalType": "uint256",
          "name": "",
          "type": "uint256"
        }
      ],
      "stateMutability": "view",
      "type": "function"
    },
    {
      "inputs": [
        {
          "internalType": "address",
          "name": "token",
          "type": "address"
        },
        {
          "internalType": "address",
          "name": "account",
          "type": "address"
        }
      ],
      "name": "liquidate",
      "outputs": [],
      "stateMutability": "nonpayable",
      "type": "function"
    },
    {
      "inputs": [
        {
          "internalType": "uint256",
          "name": "collateralValue",
          "type": "uint256"
        },
        {
          "internalType": "address",
          "name": "token",
          "type": "address"
        },
        {
          "internalType": "address",
          "name": "borrower",
          "type": "address"
        }
      ],
      "name": "liquidateAllowed",
      "outputs": [
        {
          "internalType": "bool",
          "name": "allow",
          "type": "bool"
        }
      ],
      "stateMutability": "view",
      "type": "function"
    },
    {
      "inputs": [],
      "name": "owner",
      "outputs": [
        {
          "internalType": "address",
          "name": "",
          "type": "address"
        }
      ],
      "stateMutability": "view",
      "type": "function"
    },
    {
      "inputs": [],
      "name": "renounceOwnership",
      "outputs": [],
      "stateMutability": "nonpayable",
      "type": "function"
    },
    {
      "inputs": [
        {
          "internalType": "uint256",
          "name": "amount",
          "type": "uint256"
        },
        {
          "internalType": "address",
          "name": "token",
          "type": "address"
        }
      ],
      "name": "repay",
      "outputs": [],
      "stateMutability": "nonpayable",
      "type": "function"
    },
    {
      "inputs": [],
      "name": "rewards",
      "outputs": [
        {
          "internalType": "uint256",
          "name": "allInterestInUSD",
          "type": "uint256"
        },
        {
          "internalType": "uint256",
          "name": "rewardPerToken",
          "type": "uint256"
        }
      ],
      "stateMutability": "view",
      "type": "function"
    },
    {
      "inputs": [
        {
          "internalType": "address",
          "name": "",
          "type": "address"
        }
      ],
      "name": "tokenToChainlinkPriceFeed",
      "outputs": [
        {
          "internalType": "address",
          "name": "",
          "type": "address"
        }
      ],
      "stateMutability": "view",
      "type": "function"
    },
    {
      "inputs": [
        {
          "internalType": "address",
          "name": "newOwner",
          "type": "address"
        }
      ],
      "name": "transferOwnership",
      "outputs": [],
      "stateMutability": "nonpayable",
      "type": "function"
    },
    {
      "inputs": [],
      "name": "uSDToken",
      "outputs": [
        {
          "internalType": "contract IERC20",
          "name": "",
          "type": "address"
        }
      ],
      "stateMutability": "view",
      "type": "function"
    },
    {
      "inputs": [],
      "name": "updateRewards",
      "outputs": [],
      "stateMutability": "nonpayable",
      "type": "function"
    },
    {
      "inputs": [
        {
          "internalType": "address",
          "name": "",
          "type": "address"
        },
        {
          "internalType": "address",
          "name": "",
          "type": "address"
        }
      ],
      "name": "userBorrow",
      "outputs": [
        {
          "internalType": "uint256",
          "name": "",
          "type": "uint256"
        }
      ],
      "stateMutability": "view",
      "type": "function"
    },
    {
      "inputs": [
        {
          "internalType": "address",
          "name": "",
          "type": "address"
        },
        {
          "internalType": "address",
          "name": "",
          "type": "address"
        }
      ],
      "name": "userDeposit",
      "outputs": [
        {
          "internalType": "uint256",
          "name": "amount",
          "type": "uint256"
        },
        {
          "internalType": "uint256",
          "name": "rewardDebt",
          "type": "uint256"
        }
      ],
      "stateMutability": "view",
      "type": "function"
    },
    {
      "inputs": [
        {
          "internalType": "address",
          "name": "token",
          "type": "address"
        },
        {
          "internalType": "address",
          "name": "priceFeed",
          "type": "address"
        }
      ],
      "name": "whitelistToken",
      "outputs": [],
      "stateMutability": "nonpayable",
      "type": "function"
    },
    {
      "inputs": [
        {
          "internalType": "address",
          "name": "token",
          "type": "address"
        },
        {
          "internalType": "uint256",
          "name": "amount",
          "type": "uint256"
        }
      ],
      "name": "withdraw",
      "outputs": [],
      "stateMutability": "nonpayable",
      "type": "function"
    }
  ],
  "bytecode": {
    "object": "0x60a06040523480156200001157600080fd5b5060405162001dd538038062001dd58339810160408190526200003491620000cd565b33806200005b57604051631e4fbdf760e01b81526000600482015260240160405180910390fd5b62000066816200007d565b50600180556001600160a01b0316608052620000ff565b600080546001600160a01b038381166001600160a01b0319831681178455604051919092169283917f8be0079c531659141344cd1fd0a4f28419497f9722a3daafe3b4186f6b6457e09190a35050565b600060208284031215620000e057600080fd5b81516001600160a01b0381168114620000f857600080fd5b9392505050565b608051611c74620001616000396000818161020601528181610591015281816106ed015281816108ac01528181610a8c01528181610d7a01528181610dfd015281816110ab0152818161112e0152818161148701526115990152611c746000f3fe608060405234801561001057600080fd5b50600436106101425760003560e01c806386b9d81f116100b8578063acb708151161007c578063acb70815146102f7578063d1c41d50146101f9578063dcdb0c031461030a578063e782e68d14610312578063f2fde38b14610325578063f3fef3a31461033857600080fd5b806386b9d81f146102775780638bcede841461028a5780638da5cb5b146102ad5780638dc87660146102be5780639ec5a894146102e957600080fd5b806347e7ef241161010a57806347e7ef24146101d35780634b3fd148146101e6578063602839db146101f9578063694f86f714610201578063715018a6146102285780638629b6b21461023057600080fd5b806317f49e05146101475780631e6ce63414610162578063364f01a6146101a3578063372d4ff8146101b85780633e158b0c146101cb575b600080fd5b61014f605081565b6040519081526020015b60405180910390f35b61018b610170366004611949565b6002602052600090815260409020546001600160a01b031681565b6040516001600160a01b039091168152602001610159565b6101b66101b1366004611964565b61034b565b005b61014f6101c6366004611997565b61048f565b6101b6610579565b6101b66101e13660046119ba565b610648565b6101b66101f4366004611997565b61084f565b61014f600481565b61018b7f000000000000000000000000000000000000000000000000000000000000000081565b6101b6610abc565b61026261023e366004611964565b60056020908152600092835260408084209091529082529020805460019091015482565b60408051928352602083019190915201610159565b6101b6610285366004611964565b610ad0565b61029d6102983660046119e4565b610e39565b6040519015158152602001610159565b6000546001600160a01b031661018b565b61014f6102cc366004611964565b600460209081526000928352604080842090915290825290205481565b600654600754610262919082565b6101b6610305366004611997565b610eac565b61014f605a81565b61029d610320366004611a20565b611166565b6101b6610333366004611949565b61127c565b6101b66103463660046119ba565b6112ba565b6103536115d1565b806001600160a01b0381166103835760405162461bcd60e51b815260040161037a90611a5b565b60405180910390fd5b826001600160a01b0381166103aa5760405162461bcd60e51b815260040161037a90611a5b565b6001600160a01b03841660009081526003602052604090205460ff16156104135760405162461bcd60e51b815260206004820152601c60248201527f5265766572743a20546f6b656e20616c72656164792065786973747300000000604482015260640161037a565b6001600160a01b0384811660008181526003602090815260408083208054600160ff19909116179055600282529182902080546001600160a01b03191694881694909417909355519081527f0b4be8cc61a5810a6553c98a445d21dcfead52b5d4d4d2e823d4cb5172d9fd65910160405180910390a150505050565b6001600160a01b03808216600090815260026020526040808220548151633fabe5a360e21b8152915192931691829163feaf968c9160048083019260a09291908290030181865afa925050508015610504575060408051601f3d908101601f1916820190925261050191810190611aac565b60015b61055157604051637e61334960e01b815260206004820152601860248201527f436861696e6b4c696e6b2064617461206e6f7420736166650000000000000000604482015260640161037a565b6305f5e1006105608a86611b12565b61056a9190611b29565b96505050505050505b92915050565b6040516370a0823160e01b81523060048201526000907f00000000000000000000000000000000000000000000000000000000000000006001600160a01b0316906370a0823190602401602060405180830381865afa1580156105e0573d6000803e3d6000fd5b505050506040513d601f19601f820116820180604052508101906106049190611b4b565b6006549091506000906106179083611b64565b9050811561064457600654819061063690670de0b6b3a7640000611b12565b6106409190611b29565b6007555b5050565b6001600160a01b038216600090815260036020526040902054829060ff166106825760405162461bcd60e51b815260040161037a90611b77565b81600081116106a35760405162461bcd60e51b815260040161037a90611bae565b6106ab610579565b3360009081526005602090815260408083206001600160a01b0388168452909152812080548592906106de908490611bda565b90915550506001600160a01b037f0000000000000000000000000000000000000000000000000000000000000000811690851603610782576007543360009081526005602090815260408083206001600160a01b0389168452909152902054670de0b6b3a76400009161075091611b12565b61075a9190611b29565b3360009081526005602090815260408083206001600160a01b03891684529091529020600101555b60405183815233906001600160a01b038616907f046f14ee76938377d255f0d2e48b3352fca2236c9296a48d997fee837cf4ebae9060200160405180910390a360405163095ea7b360e01b8152306004820152602481018490526001600160a01b0385169063095ea7b3906044016020604051808303816000875af115801561080f573d6000803e3d6000fd5b505050506040513d601f19601f820116820180604052508101906108339190611bed565b506108496001600160a01b0385163330866115fe565b50505050565b81600081116108705760405162461bcd60e51b815260040161037a90611bae565b6001600160a01b038216600090815260036020526040902054829060ff166108aa5760405162461bcd60e51b815260040161037a90611b77565b7f00000000000000000000000000000000000000000000000000000000000000006001600160a01b0316836001600160a01b0316036109215760405162461bcd60e51b81526020600482015260136024820152721e5bdd4818d85b9d08189bdc9c9bddc81554d1606a1b604482015260640161037a565b3360009081526005602090815260408083206001600160a01b0387168452909152902054806109925760405162461bcd60e51b815260206004820152601a60248201527f5265766572743a20696e73756666696369656e742066756e6473000000000000604482015260640161037a565b3360009081526004602090815260408083206001600160a01b0388168452909152812054906109c383878985611166565b905080610a125760405162461bcd60e51b815260206004820152601c60248201527f5265766572743a20424f52524f574544206e6f7420616c6c6f77656400000000604482015260640161037a565b3360009081526004602090815260408083206001600160a01b038a16845290915281208054899290610a45908490611bda565b909155505060405187815233907f4d64aec3a72bfec8a86df3b7338f316e28fc09c1781a71ae3612ceaec9e4729f9060200160405180910390a2610ab36001600160a01b037f0000000000000000000000000000000000000000000000000000000000000000163389611665565b50505050505050565b610ac46115d1565b610ace600061169b565b565b6001600160a01b038216600090815260036020526040902054829060ff16610b0a5760405162461bcd60e51b815260040161037a90611b77565b816001600160a01b038116610b315760405162461bcd60e51b815260040161037a90611a5b565b610b39610579565b6001600160a01b03808416600090815260046020908152604080832093881683529290522054610bab5760405162461bcd60e51b815260206004820181905260248201527f63686f6f736520616e6f7468657220746f6b656e20746f206c69717564617465604482015260640161037a565b6001600160a01b03808416600090815260056020908152604080832093881683529290529081205490610bdf828787610e39565b905080610c2e5760405162461bcd60e51b815260206004820152601b60248201527f6163636f756e742063616e2774206265204c4951554944415445440000000000604482015260640161037a565b6001600160a01b038086166000908152600460208181526040808420948b168452939052918120549091606491610c659190611b12565b610c6f9190611b29565b6001600160a01b038088166000908152600460209081526040808320938c1683529290529081205491925090610ca6908390611b64565b9050838110610cea5760405162461bcd60e51b815260206004820152601060248201526f1a5b5c1c9bdc195c881c185e5b595b9d60821b604482015260640161037a565b6001600160a01b038781166000818152600460209081526040808320948d168084529482528083208390558383526005825280832085845282528083209290925590518481529192917ff884e3400a8025dab4c7b15e040c03fd4b462273f178b85b0ce73d8b1eca2fc9910160405180910390a360405163095ea7b360e01b8152306004820152602481018290527f00000000000000000000000000000000000000000000000000000000000000006001600160a01b03169063095ea7b3906044016020604051808303816000875af1158015610dcb573d6000803e3d6000fd5b505050506040513d601f19601f82011682018060405250810190610def9190611bed565b50610e256001600160a01b037f0000000000000000000000000000000000000000000000000000000000000000163330846115fe565b610e2f88856116eb565b5050505050505050565b600080610e46858561048f565b905060006064610e57605a84611b12565b610e619190611b29565b6001600160a01b038086166000908152600460209081526040808320938a1683529290522054909150808211610e9d5760019350505050610ea5565b600093505050505b9392505050565b8160008111610ecd5760405162461bcd60e51b815260040161037a90611bae565b6001600160a01b038216600090815260036020526040902054829060ff16610f075760405162461bcd60e51b815260040161037a90611b77565b3360009081526004602090815260408083206001600160a01b0387168452909152902054610f825760405162461bcd60e51b815260206004820152602260248201527f5265766572743a20686173206265656e204c495155494441544544206265666f604482015261726560f01b606482015260840161037a565b3360009081526004602081815260408084206001600160a01b03881685529091528220549190606490610fb59084611b12565b610fbf9190611b29565b9050610fcb8183611bda565b86101561101a5760405162461bcd60e51b815260206004820152601f60248201527f5265766572743a2055736572206d75737420726570617920696e2066756c6c00604482015260640161037a565b3360009081526004602090815260408083206001600160a01b038916845290915281205560065461104c908290611bda565b60065560405186815233906001600160a01b038716907fbcb7ae9ee8d027a568d1fe7507c2d4e6749f3bd7f50097e606f1a1fda38fb4039060200160405180910390a360405163095ea7b360e01b8152306004820152602481018790527f00000000000000000000000000000000000000000000000000000000000000006001600160a01b03169063095ea7b3906044016020604051808303816000875af11580156110fc573d6000803e3d6000fd5b505050506040513d601f19601f820116820180604052508101906111209190611bed565b506111566001600160a01b037f0000000000000000000000000000000000000000000000000000000000000000163330896115fe565b61115e610579565b505050505050565b600080611173868661048f565b90506000611180826117aa565b9050831561120a57806111938587611bda565b11156111ff5760405162461bcd60e51b815260206004820152603560248201527f5265766572743a20596f75206e65656420746f20746f7020796f757220636f6c6044820152741b185d195c985b081e5bdd48189bdc9c9bddc8108d605a1b606482015260840161037a565b600192505050611274565b808511156111ff5760405162461bcd60e51b815260206004820152603160248201527f5265766572743a20746f7020636f6c6c61746572616c206f722052656475636560448201527020616d6f756e7420746f20626f72726f7760781b606482015260840161037a565b949350505050565b6112846115d1565b6001600160a01b0381166112ae57604051631e4fbdf760e01b81526000600482015260240161037a565b6112b78161169b565b50565b6001600160a01b038216600090815260036020526040902054829060ff166112f45760405162461bcd60e51b815260040161037a90611b77565b81600081116113155760405162461bcd60e51b815260040161037a90611bae565b61131d610579565b3360009081526004602090815260408083206001600160a01b03881684529091529020541561138e5760405162461bcd60e51b815260206004820181905260248201527f5265766572743a20596f7520626f72726f776564207265706179206669727374604482015260640161037a565b3360009081526005602090815260408083206001600160a01b03881684529091529020548381101561140d5760405162461bcd60e51b815260206004820152602260248201527f5265766572743a20416d6f756e7420746f20776974686472617720696e2068696044820152610ced60f31b606482015260840161037a565b3360009081526005602090815260408083206001600160a01b038916845290915281208054869290611440908490611b64565b909155505060405184815233906001600160a01b038716907f07b5e730d86800ad649baffc0308439b303251779d82dd3df0dc707fc0c35d6f9060200160405180910390a37f00000000000000000000000000000000000000000000000000000000000000006001600160a01b0316856001600160a01b0316036115c0573360009081526005602090815260408083206001600160a01b0389168452909152812060010154600754670de0b6b3a7640000906114fc9085611b12565b6115069190611b29565b6115109190611b64565b905080156115be576007543360009081526005602090815260408083206001600160a01b038b168452909152902054670de0b6b3a76400009161155291611b12565b61155c9190611b29565b3360009081526005602090815260408083206001600160a01b038b168452909152902060010155600654611591908290611b64565b6006556115be7f0000000000000000000000000000000000000000000000000000000000000000826116eb565b505b6115ca85856116eb565b5050505050565b6000546001600160a01b03163314610ace5760405163118cdaa760e01b815233600482015260240161037a565b6040516001600160a01b0384811660248301528381166044830152606482018390526108499186918216906323b872dd906084015b604051602081830303815290604052915060e01b6020820180516001600160e01b0383818316178352505050506117c3565b6040516001600160a01b0383811660248301526044820183905261169691859182169063a9059cbb90606401611633565b505050565b600080546001600160a01b038381166001600160a01b0319831681178455604051919092169283917f8be0079c531659141344cd1fd0a4f28419497f9722a3daafe3b4186f6b6457e09190a35050565b6040516370a0823160e01b815230600482015281906001600160a01b038416906370a0823190602401602060405180830381865afa158015611731573d6000803e3d6000fd5b505050506040513d601f19601f820116820180604052508101906117559190611b4b565b10156117965760405162461bcd60e51b815260206004820152601060248201526f696e7375666669656e742066756e647360801b604482015260640161037a565b6106446001600160a01b0383163383611665565b600060646117b9605084611b12565b6105739190611b29565b60006117d86001600160a01b03841683611826565b905080516000141580156117fd5750808060200190518101906117fb9190611bed565b155b1561169657604051635274afe760e01b81526001600160a01b038416600482015260240161037a565b6060610ea58383600084600080856001600160a01b0316848660405161184c9190611c0f565b60006040518083038185875af1925050503d8060008114611889576040519150601f19603f3d011682016040523d82523d6000602084013e61188e565b606091505b509150915061189e8683836118a8565b9695505050505050565b6060826118bd576118b882611904565b610ea5565b81511580156118d457506001600160a01b0384163b155b156118fd57604051639996b31560e01b81526001600160a01b038516600482015260240161037a565b5080610ea5565b8051156119145780518082602001fd5b604051630a12f52160e11b815260040160405180910390fd5b80356001600160a01b038116811461194457600080fd5b919050565b60006020828403121561195b57600080fd5b610ea58261192d565b6000806040838503121561197757600080fd5b6119808361192d565b915061198e6020840161192d565b90509250929050565b600080604083850312156119aa57600080fd5b8235915061198e6020840161192d565b600080604083850312156119cd57600080fd5b6119d68361192d565b946020939093013593505050565b6000806000606084860312156119f957600080fd5b83359250611a096020850161192d565b9150611a176040850161192d565b90509250925092565b60008060008060808587031215611a3657600080fd5b84359350611a466020860161192d565b93969395505050506040820135916060013590565b6020808252601f908201527f5265766572742061646472657373207a65726f206e6f7420616c6c6f77656400604082015260600190565b805169ffffffffffffffffffff8116811461194457600080fd5b600080600080600060a08688031215611ac457600080fd5b611acd86611a92565b9450602086015193506040860151925060608601519150611af060808701611a92565b90509295509295909350565b634e487b7160e01b600052601160045260246000fd5b808202811582820484141761057357610573611afc565b600082611b4657634e487b7160e01b600052601260045260246000fd5b500490565b600060208284031215611b5d57600080fd5b5051919050565b8181038181111561057357610573611afc565b60208082526017908201527f5265766572743a206e6f742077686974656c6973746564000000000000000000604082015260600190565b60208082526012908201527114995d995c9d0e9e995c9bc8185b5bdd5b9d60721b604082015260600190565b8082018082111561057357610573611afc565b600060208284031215611bff57600080fd5b81518015158114610ea557600080fd5b6000825160005b81811015611c305760208186018101518583015201611c16565b50600092019182525091905056fea2646970667358221220809da7a48f1aeed0e3d80f733d2c5369ea96deb87b9be70098fa45caeaf5a3d364736f6c63430008140033",
    "linkReferences": {}
  },
  "methodIdentifiers": {
    "BORROW_RATE()": "602839db",
    "COLLATERAL_FACTOR()": "17f49e05",
    "LIQUIDATION_FACTOR()": "dcdb0c03",
    "LIQUIDATION_REWARDS()": "d1c41d50",
    "borrow(uint256,address)": "4b3fd148",
    "borrowAllowed(uint256,address,uint256,uint256)": "e782e68d",
    "deposit(address,uint256)": "47e7ef24",
    "getUSDvalue(uint256,address)": "372d4ff8",
    "liquidate(address,address)": "86b9d81f",
    "liquidateAllowed(uint256,address,address)": "8bcede84",
    "owner()": "8da5cb5b",
    "renounceOwnership()": "715018a6",
    "repay(uint256,address)": "acb70815",
    "rewards()": "9ec5a894",
    "tokenToChainlinkPriceFeed(address)": "1e6ce634",
    "transferOwnership(address)": "f2fde38b",
    "uSDToken()": "694f86f7",
    "updateRewards()": "3e158b0c",
    "userBorrow(address,address)": "8dc87660",
    "userDeposit(address,address)": "8629b6b2",
    "whitelistToken(address,address)": "364f01a6",
    "withdraw(address,uint256)": "f3fef3a3"
  },
  "id": 32
}