{
  "abi": [
    {
      "inputs": [
        {
          "internalType": "address",
          "name": "_uSDToken",
          "type": "address"
        }
      ],
      "stateMutability": "nonpayable",
      "type": "constructor"
    },
    {
      "inputs": [
        {
          "internalType": "address",
          "name": "target",
          "type": "address"
        }
      ],
      "name": "AddressEmptyCode",
      "type": "error"
    },
    {
      "inputs": [
        {
          "internalType": "address",
          "name": "account",
          "type": "address"
        }
      ],
      "name": "AddressInsufficientBalance",
      "type": "error"
    },
    {
      "inputs": [
        {
          "internalType": "string",
          "name": "NoInterests",
          "type": "string"
        }
      ],
      "name": "BadDebt",
      "type": "error"
    },
    {
      "inputs": [
        {
          "internalType": "string",
          "name": "failed",
          "type": "string"
        }
      ],
      "name": "ChainLinkFailed",
      "type": "error"
    },
    {
      "inputs": [],
      "name": "FailedInnerCall",
      "type": "error"
    },
    {
      "inputs": [
        {
          "internalType": "address",
          "name": "owner",
          "type": "address"
        }
      ],
      "name": "OwnableInvalidOwner",
      "type": "error"
    },
    {
      "inputs": [
        {
          "internalType": "address",
          "name": "account",
          "type": "address"
        }
      ],
      "name": "OwnableUnauthorizedAccount",
      "type": "error"
    },
    {
      "inputs": [],
      "name": "ReentrancyGuardReentrantCall",
      "type": "error"
    },
    {
      "inputs": [
        {
          "internalType": "address",
          "name": "token",
          "type": "address"
        }
      ],
      "name": "SafeERC20FailedOperation",
      "type": "error"
    },
    {
      "anonymous": false,
      "inputs": [
        {
          "indexed": true,
          "internalType": "address",
          "name": "user_",
          "type": "address"
        },
        {
          "indexed": false,
          "internalType": "uint256",
          "name": "amount_",
          "type": "uint256"
        }
      ],
      "name": "BORROWED",
      "type": "event"
    },
    {
      "anonymous": false,
      "inputs": [
        {
          "indexed": true,
          "internalType": "address",
          "name": "token_",
          "type": "address"
        },
        {
          "indexed": true,
          "internalType": "address",
          "name": "user_",
          "type": "address"
        },
        {
          "indexed": false,
          "internalType": "uint256",
          "name": "amount_",
          "type": "uint256"
        }
      ],
      "name": "DEPOSITED",
      "type": "event"
    },
    {
      "anonymous": false,
      "inputs": [
        {
          "indexed": true,
          "internalType": "address",
          "name": "token_",
          "type": "address"
        },
        {
          "indexed": true,
          "internalType": "address",
          "name": "user_",
          "type": "address"
        },
        {
          "indexed": false,
          "internalType": "uint256",
          "name": "amount_",
          "type": "uint256"
        }
      ],
      "name": "LIQUIDATED",
      "type": "event"
    },
    {
      "anonymous": false,
      "inputs": [
        {
          "indexed": true,
          "internalType": "address",
          "name": "previousOwner",
          "type": "address"
        },
        {
          "indexed": true,
          "internalType": "address",
          "name": "newOwner",
          "type": "address"
        }
      ],
      "name": "OwnershipTransferred",
      "type": "event"
    },
    {
      "anonymous": false,
      "inputs": [
        {
          "indexed": true,
          "internalType": "address",
          "name": "token_",
          "type": "address"
        },
        {
          "indexed": true,
          "internalType": "address",
          "name": "user_",
          "type": "address"
        },
        {
          "indexed": false,
          "internalType": "uint256",
          "name": "amount_",
          "type": "uint256"
        }
      ],
      "name": "REPAYED",
      "type": "event"
    },
    {
      "anonymous": false,
      "inputs": [
        {
          "indexed": false,
          "internalType": "address",
          "name": "token_",
          "type": "address"
        }
      ],
      "name": "WHITELISTED",
      "type": "event"
    },
    {
      "anonymous": false,
      "inputs": [
        {
          "indexed": true,
          "internalType": "address",
          "name": "token_",
          "type": "address"
        },
        {
          "indexed": true,
          "internalType": "address",
          "name": "user_",
          "type": "address"
        },
        {
          "indexed": false,
          "internalType": "uint256",
          "name": "amount_",
          "type": "uint256"
        }
      ],
      "name": "WITHDRAWED",
      "type": "event"
    },
    {
      "inputs": [],
      "name": "BORROW_RATE",
      "outputs": [
        {
          "internalType": "uint256",
          "name": "",
          "type": "uint256"
        }
      ],
      "stateMutability": "view",
      "type": "function"
    },
    {
      "inputs": [],
      "name": "COLLATERAL_FACTOR",
      "outputs": [
        {
          "internalType": "uint256",
          "name": "",
          "type": "uint256"
        }
      ],
      "stateMutability": "view",
      "type": "function"
    },
    {
      "inputs": [],
      "name": "LIQUIDATION_FACTOR",
      "outputs": [
        {
          "internalType": "uint256",
          "name": "",
          "type": "uint256"
        }
      ],
      "stateMutability": "view",
      "type": "function"
    },
    {
      "inputs": [],
      "name": "LIQUIDATION_REWARDS",
      "outputs": [
        {
          "internalType": "uint256",
          "name": "",
          "type": "uint256"
        }
      ],
      "stateMutability": "view",
      "type": "function"
    },
    {
      "inputs": [
        {
          "internalType": "uint256",
          "name": "amount",
          "type": "uint256"
        },
        {
          "internalType": "address",
          "name": "token",
          "type": "address"
        }
      ],
      "name": "borrow",
      "outputs": [],
      "stateMutability": "nonpayable",
      "type": "function"
    },
    {
      "inputs": [
        {
          "internalType": "uint256",
          "name": "collateralValue",
          "type": "uint256"
        },
        {
          "internalType": "address",
          "name": "token",
          "type": "address"
        },
        {
          "internalType": "uint256",
          "name": "amountToBorrow",
          "type": "uint256"
        },
        {
          "internalType": "uint256",
          "name": "oldBorrow",
          "type": "uint256"
        }
      ],
      "name": "borrowAllowed",
      "outputs": [
        {
          "internalType": "bool",
          "name": "allow",
          "type": "bool"
        }
      ],
      "stateMutability": "view",
      "type": "function"
    },
    {
      "inputs": [
        {
          "internalType": "address",
          "name": "token",
          "type": "address"
        },
        {
          "internalType": "uint256",
          "name": "amount",
          "type": "uint256"
        }
      ],
      "name": "deposit",
      "outputs": [],
      "stateMutability": "nonpayable",
      "type": "function"
    },
    {
      "inputs": [
        {
          "internalType": "uint256",
          "name": "collateralValue",
          "type": "uint256"
        },
        {
          "internalType": "address",
          "name": "token",
          "type": "address"
        }
      ],
      "name": "getUSDvalue",
      "outputs": [
        {
          "internalType": "uint256",
          "name": "",
          "type": "uint256"
        }
      ],
      "stateMutability": "view",
      "type": "function"
    },
    {
      "inputs": [
        {
          "internalType": "address",
          "name": "collateral",
          "type": "address"
        }
      ],
      "name": "getUserBorrowAmount",
      "outputs": [
        {
          "internalType": "uint256",
          "name": "",
          "type": "uint256"
        }
      ],
      "stateMutability": "view",
      "type": "function"
    },
    {
      "inputs": [
        {
          "internalType": "address",
          "name": "collateral",
          "type": "address"
        }
      ],
      "name": "getUserDepositAmount",
      "outputs": [
        {
          "components": [
            {
              "internalType": "uint256",
              "name": "amount",
              "type": "uint256"
            },
            {
              "internalType": "uint256",
              "name": "rewardDebt",
              "type": "uint256"
            }
          ],
          "internalType": "struct LendingDApp.UserDepositContainer",
          "name": "",
          "type": "tuple"
        }
      ],
      "stateMutability": "view",
      "type": "function"
    },
    {
      "inputs": [
        {
          "internalType": "address",
          "name": "token",
          "type": "address"
        },
        {
          "internalType": "address",
          "name": "account",
          "type": "address"
        }
      ],
      "name": "liquidate",
      "outputs": [],
      "stateMutability": "nonpayable",
      "type": "function"
    },
    {
      "inputs": [
        {
          "internalType": "uint256",
          "name": "collateralValue",
          "type": "uint256"
        },
        {
          "internalType": "address",
          "name": "token",
          "type": "address"
        },
        {
          "internalType": "address",
          "name": "borrower",
          "type": "address"
        }
      ],
      "name": "liquidateAllowed",
      "outputs": [
        {
          "internalType": "bool",
          "name": "allow",
          "type": "bool"
        }
      ],
      "stateMutability": "view",
      "type": "function"
    },
    {
      "inputs": [],
      "name": "owner",
      "outputs": [
        {
          "internalType": "address",
          "name": "",
          "type": "address"
        }
      ],
      "stateMutability": "view",
      "type": "function"
    },
    {
      "inputs": [],
      "name": "renounceOwnership",
      "outputs": [],
      "stateMutability": "nonpayable",
      "type": "function"
    },
    {
      "inputs": [
        {
          "internalType": "uint256",
          "name": "amount",
          "type": "uint256"
        },
        {
          "internalType": "address",
          "name": "token",
          "type": "address"
        }
      ],
      "name": "repay",
      "outputs": [],
      "stateMutability": "nonpayable",
      "type": "function"
    },
    {
      "inputs": [],
      "name": "rewards",
      "outputs": [
        {
          "internalType": "uint256",
          "name": "allInterestInUSD",
          "type": "uint256"
        },
        {
          "internalType": "uint256",
          "name": "rewardPerToken",
          "type": "uint256"
        }
      ],
      "stateMutability": "view",
      "type": "function"
    },
    {
      "inputs": [
        {
          "internalType": "address",
          "name": "",
          "type": "address"
        }
      ],
      "name": "tokenToChainlinkPriceFeed",
      "outputs": [
        {
          "internalType": "address",
          "name": "",
          "type": "address"
        }
      ],
      "stateMutability": "view",
      "type": "function"
    },
    {
      "inputs": [
        {
          "internalType": "address",
          "name": "newOwner",
          "type": "address"
        }
      ],
      "name": "transferOwnership",
      "outputs": [],
      "stateMutability": "nonpayable",
      "type": "function"
    },
    {
      "inputs": [],
      "name": "uSDToken",
      "outputs": [
        {
          "internalType": "contract IERC20",
          "name": "",
          "type": "address"
        }
      ],
      "stateMutability": "view",
      "type": "function"
    },
    {
      "inputs": [],
      "name": "updateRewards",
      "outputs": [],
      "stateMutability": "nonpayable",
      "type": "function"
    },
    {
      "inputs": [
        {
          "internalType": "address",
          "name": "",
          "type": "address"
        },
        {
          "internalType": "address",
          "name": "",
          "type": "address"
        }
      ],
      "name": "userBorrow",
      "outputs": [
        {
          "internalType": "uint256",
          "name": "",
          "type": "uint256"
        }
      ],
      "stateMutability": "view",
      "type": "function"
    },
    {
      "inputs": [
        {
          "internalType": "address",
          "name": "",
          "type": "address"
        },
        {
          "internalType": "address",
          "name": "",
          "type": "address"
        }
      ],
      "name": "userDeposit",
      "outputs": [
        {
          "internalType": "uint256",
          "name": "amount",
          "type": "uint256"
        },
        {
          "internalType": "uint256",
          "name": "rewardDebt",
          "type": "uint256"
        }
      ],
      "stateMutability": "view",
      "type": "function"
    },
    {
      "inputs": [
        {
          "internalType": "address",
          "name": "token",
          "type": "address"
        },
        {
          "internalType": "address",
          "name": "priceFeed",
          "type": "address"
        }
      ],
      "name": "whitelistToken",
      "outputs": [],
      "stateMutability": "nonpayable",
      "type": "function"
    },
    {
      "inputs": [
        {
          "internalType": "address",
          "name": "token",
          "type": "address"
        },
        {
          "internalType": "uint256",
          "name": "amount",
          "type": "uint256"
        }
      ],
      "name": "withdraw",
      "outputs": [],
      "stateMutability": "nonpayable",
      "type": "function"
    }
  ],
  "bytecode": {
    "object": "0x60a06040523480156200001157600080fd5b5060405162001e9938038062001e998339810160408190526200003491620000cd565b33806200005b57604051631e4fbdf760e01b81526000600482015260240160405180910390fd5b62000066816200007d565b50600180556001600160a01b0316608052620000ff565b600080546001600160a01b038381166001600160a01b0319831681178455604051919092169283917f8be0079c531659141344cd1fd0a4f28419497f9722a3daafe3b4186f6b6457e09190a35050565b600060208284031215620000e057600080fd5b81516001600160a01b0381168114620000f857600080fd5b9392505050565b608051611d38620001616000396000818161029401528181610655015281816107b10152818161097001528181610b5001528181610e3e01528181610ec10152818161116f015281816111f20152818161154b015261165d0152611d386000f3fe608060405234801561001057600080fd5b50600436106101585760003560e01c806386b9d81f116100c3578063acb708151161007c578063acb70815146103bb578063d1c41d5014610287578063dcdb0c03146103ce578063e782e68d146103d6578063f2fde38b146103e9578063f3fef3a3146103fc57600080fd5b806386b9d81f1461030557806388c5ba1b146103185780638bcede841461034e5780638da5cb5b146103715780638dc87660146103825780639ec5a894146103ad57600080fd5b806347e7ef241161011557806347e7ef24146102615780634b3fd14814610274578063602839db14610287578063694f86f71461028f578063715018a6146102b65780638629b6b2146102be57600080fd5b80630cec2a761461015d57806317f49e05146101da5780631e6ce634146101f0578063364f01a614610231578063372d4ff8146102465780633e158b0c14610259575b600080fd5b6101ba61016b366004611a0d565b60408051808201825260008082526020918201819052338152600582528281206001600160a01b0394909416815292815291819020815180830190925280548252600101549181019190915290565b604080518251815260209283015192810192909252015b60405180910390f35b6101e2605081565b6040519081526020016101d1565b6102196101fe366004611a0d565b6002602052600090815260409020546001600160a01b031681565b6040516001600160a01b0390911681526020016101d1565b61024461023f366004611a28565b61040f565b005b6101e2610254366004611a5b565b610553565b61024461063d565b61024461026f366004611a7e565b61070c565b610244610282366004611a5b565b610913565b6101e2600481565b6102197f000000000000000000000000000000000000000000000000000000000000000081565b610244610b80565b6102f06102cc366004611a28565b60056020908152600092835260408084209091529082529020805460019091015482565b604080519283526020830191909152016101d1565b610244610313366004611a28565b610b94565b6101e2610326366004611a0d565b3360009081526004602090815260408083206001600160a01b03949094168352929052205490565b61036161035c366004611aa8565b610efd565b60405190151581526020016101d1565b6000546001600160a01b0316610219565b6101e2610390366004611a28565b600460209081526000928352604080842090915290825290205481565b6006546007546102f0919082565b6102446103c9366004611a5b565b610f70565b6101e2605a81565b6103616103e4366004611ae4565b61122a565b6102446103f7366004611a0d565b611340565b61024461040a366004611a7e565b61137e565b610417611695565b806001600160a01b0381166104475760405162461bcd60e51b815260040161043e90611b1f565b60405180910390fd5b826001600160a01b03811661046e5760405162461bcd60e51b815260040161043e90611b1f565b6001600160a01b03841660009081526003602052604090205460ff16156104d75760405162461bcd60e51b815260206004820152601c60248201527f5265766572743a20546f6b656e20616c72656164792065786973747300000000604482015260640161043e565b6001600160a01b0384811660008181526003602090815260408083208054600160ff19909116179055600282529182902080546001600160a01b03191694881694909417909355519081527f0b4be8cc61a5810a6553c98a445d21dcfead52b5d4d4d2e823d4cb5172d9fd65910160405180910390a150505050565b6001600160a01b03808216600090815260026020526040808220548151633fabe5a360e21b8152915192931691829163feaf968c9160048083019260a09291908290030181865afa9250505080156105c8575060408051601f3d908101601f191682019092526105c591810190611b70565b60015b61061557604051637e61334960e01b815260206004820152601860248201527f436861696e6b4c696e6b2064617461206e6f7420736166650000000000000000604482015260640161043e565b6305f5e1006106248a86611bd6565b61062e9190611bed565b96505050505050505b92915050565b6040516370a0823160e01b81523060048201526000907f00000000000000000000000000000000000000000000000000000000000000006001600160a01b0316906370a0823190602401602060405180830381865afa1580156106a4573d6000803e3d6000fd5b505050506040513d601f19601f820116820180604052508101906106c89190611c0f565b6006549091506000906106db9083611c28565b905081156107085760065481906106fa90670de0b6b3a7640000611bd6565b6107049190611bed565b6007555b5050565b6001600160a01b038216600090815260036020526040902054829060ff166107465760405162461bcd60e51b815260040161043e90611c3b565b81600081116107675760405162461bcd60e51b815260040161043e90611c72565b61076f61063d565b3360009081526005602090815260408083206001600160a01b0388168452909152812080548592906107a2908490611c9e565b90915550506001600160a01b037f0000000000000000000000000000000000000000000000000000000000000000811690851603610846576007543360009081526005602090815260408083206001600160a01b0389168452909152902054670de0b6b3a76400009161081491611bd6565b61081e9190611bed565b3360009081526005602090815260408083206001600160a01b03891684529091529020600101555b60405183815233906001600160a01b038616907f046f14ee76938377d255f0d2e48b3352fca2236c9296a48d997fee837cf4ebae9060200160405180910390a360405163095ea7b360e01b8152306004820152602481018490526001600160a01b0385169063095ea7b3906044016020604051808303816000875af11580156108d3573d6000803e3d6000fd5b505050506040513d601f19601f820116820180604052508101906108f79190611cb1565b5061090d6001600160a01b0385163330866116c2565b50505050565b81600081116109345760405162461bcd60e51b815260040161043e90611c72565b6001600160a01b038216600090815260036020526040902054829060ff1661096e5760405162461bcd60e51b815260040161043e90611c3b565b7f00000000000000000000000000000000000000000000000000000000000000006001600160a01b0316836001600160a01b0316036109e55760405162461bcd60e51b81526020600482015260136024820152721e5bdd4818d85b9d08189bdc9c9bddc81554d1606a1b604482015260640161043e565b3360009081526005602090815260408083206001600160a01b038716845290915290205480610a565760405162461bcd60e51b815260206004820152601a60248201527f5265766572743a20696e73756666696369656e742066756e6473000000000000604482015260640161043e565b3360009081526004602090815260408083206001600160a01b038816845290915281205490610a878387898561122a565b905080610ad65760405162461bcd60e51b815260206004820152601c60248201527f5265766572743a20424f52524f574544206e6f7420616c6c6f77656400000000604482015260640161043e565b3360009081526004602090815260408083206001600160a01b038a16845290915281208054899290610b09908490611c9e565b909155505060405187815233907f4d64aec3a72bfec8a86df3b7338f316e28fc09c1781a71ae3612ceaec9e4729f9060200160405180910390a2610b776001600160a01b037f0000000000000000000000000000000000000000000000000000000000000000163389611729565b50505050505050565b610b88611695565b610b92600061175f565b565b6001600160a01b038216600090815260036020526040902054829060ff16610bce5760405162461bcd60e51b815260040161043e90611c3b565b816001600160a01b038116610bf55760405162461bcd60e51b815260040161043e90611b1f565b610bfd61063d565b6001600160a01b03808416600090815260046020908152604080832093881683529290522054610c6f5760405162461bcd60e51b815260206004820181905260248201527f63686f6f736520616e6f7468657220746f6b656e20746f206c69717564617465604482015260640161043e565b6001600160a01b03808416600090815260056020908152604080832093881683529290529081205490610ca3828787610efd565b905080610cf25760405162461bcd60e51b815260206004820152601b60248201527f6163636f756e742063616e2774206265204c4951554944415445440000000000604482015260640161043e565b6001600160a01b038086166000908152600460208181526040808420948b168452939052918120549091606491610d299190611bd6565b610d339190611bed565b6001600160a01b038088166000908152600460209081526040808320938c1683529290529081205491925090610d6a908390611c28565b9050838110610dae5760405162461bcd60e51b815260206004820152601060248201526f1a5b5c1c9bdc195c881c185e5b595b9d60821b604482015260640161043e565b6001600160a01b038781166000818152600460209081526040808320948d168084529482528083208390558383526005825280832085845282528083209290925590518481529192917ff884e3400a8025dab4c7b15e040c03fd4b462273f178b85b0ce73d8b1eca2fc9910160405180910390a360405163095ea7b360e01b8152306004820152602481018290527f00000000000000000000000000000000000000000000000000000000000000006001600160a01b03169063095ea7b3906044016020604051808303816000875af1158015610e8f573d6000803e3d6000fd5b505050506040513d601f19601f82011682018060405250810190610eb39190611cb1565b50610ee96001600160a01b037f0000000000000000000000000000000000000000000000000000000000000000163330846116c2565b610ef388856117af565b5050505050505050565b600080610f0a8585610553565b905060006064610f1b605a84611bd6565b610f259190611bed565b6001600160a01b038086166000908152600460209081526040808320938a1683529290522054909150808211610f615760019350505050610f69565b600093505050505b9392505050565b8160008111610f915760405162461bcd60e51b815260040161043e90611c72565b6001600160a01b038216600090815260036020526040902054829060ff16610fcb5760405162461bcd60e51b815260040161043e90611c3b565b3360009081526004602090815260408083206001600160a01b03871684529091529020546110465760405162461bcd60e51b815260206004820152602260248201527f5265766572743a20686173206265656e204c495155494441544544206265666f604482015261726560f01b606482015260840161043e565b3360009081526004602081815260408084206001600160a01b038816855290915282205491906064906110799084611bd6565b6110839190611bed565b905061108f8183611c9e565b8610156110de5760405162461bcd60e51b815260206004820152601f60248201527f5265766572743a2055736572206d75737420726570617920696e2066756c6c00604482015260640161043e565b3360009081526004602090815260408083206001600160a01b0389168452909152812055600654611110908290611c9e565b60065560405186815233906001600160a01b038716907fbcb7ae9ee8d027a568d1fe7507c2d4e6749f3bd7f50097e606f1a1fda38fb4039060200160405180910390a360405163095ea7b360e01b8152306004820152602481018790527f00000000000000000000000000000000000000000000000000000000000000006001600160a01b03169063095ea7b3906044016020604051808303816000875af11580156111c0573d6000803e3d6000fd5b505050506040513d601f19601f820116820180604052508101906111e49190611cb1565b5061121a6001600160a01b037f0000000000000000000000000000000000000000000000000000000000000000163330896116c2565b61122261063d565b505050505050565b6000806112378686610553565b905060006112448261186e565b905083156112ce57806112578587611c9e565b11156112c35760405162461bcd60e51b815260206004820152603560248201527f5265766572743a20596f75206e65656420746f20746f7020796f757220636f6c6044820152741b185d195c985b081e5bdd48189bdc9c9bddc8108d605a1b606482015260840161043e565b600192505050611338565b808511156112c35760405162461bcd60e51b815260206004820152603160248201527f5265766572743a20746f7020636f6c6c61746572616c206f722052656475636560448201527020616d6f756e7420746f20626f72726f7760781b606482015260840161043e565b949350505050565b611348611695565b6001600160a01b03811661137257604051631e4fbdf760e01b81526000600482015260240161043e565b61137b8161175f565b50565b6001600160a01b038216600090815260036020526040902054829060ff166113b85760405162461bcd60e51b815260040161043e90611c3b565b81600081116113d95760405162461bcd60e51b815260040161043e90611c72565b6113e161063d565b3360009081526004602090815260408083206001600160a01b0388168452909152902054156114525760405162461bcd60e51b815260206004820181905260248201527f5265766572743a20596f7520626f72726f776564207265706179206669727374604482015260640161043e565b3360009081526005602090815260408083206001600160a01b0388168452909152902054838110156114d15760405162461bcd60e51b815260206004820152602260248201527f5265766572743a20416d6f756e7420746f20776974686472617720696e2068696044820152610ced60f31b606482015260840161043e565b3360009081526005602090815260408083206001600160a01b038916845290915281208054869290611504908490611c28565b909155505060405184815233906001600160a01b038716907f07b5e730d86800ad649baffc0308439b303251779d82dd3df0dc707fc0c35d6f9060200160405180910390a37f00000000000000000000000000000000000000000000000000000000000000006001600160a01b0316856001600160a01b031603611684573360009081526005602090815260408083206001600160a01b0389168452909152812060010154600754670de0b6b3a7640000906115c09085611bd6565b6115ca9190611bed565b6115d49190611c28565b90508015611682576007543360009081526005602090815260408083206001600160a01b038b168452909152902054670de0b6b3a76400009161161691611bd6565b6116209190611bed565b3360009081526005602090815260408083206001600160a01b038b168452909152902060010155600654611655908290611c28565b6006556116827f0000000000000000000000000000000000000000000000000000000000000000826117af565b505b61168e85856117af565b5050505050565b6000546001600160a01b03163314610b925760405163118cdaa760e01b815233600482015260240161043e565b6040516001600160a01b03848116602483015283811660448301526064820183905261090d9186918216906323b872dd906084015b604051602081830303815290604052915060e01b6020820180516001600160e01b038381831617835250505050611887565b6040516001600160a01b0383811660248301526044820183905261175a91859182169063a9059cbb906064016116f7565b505050565b600080546001600160a01b038381166001600160a01b0319831681178455604051919092169283917f8be0079c531659141344cd1fd0a4f28419497f9722a3daafe3b4186f6b6457e09190a35050565b6040516370a0823160e01b815230600482015281906001600160a01b038416906370a0823190602401602060405180830381865afa1580156117f5573d6000803e3d6000fd5b505050506040513d601f19601f820116820180604052508101906118199190611c0f565b101561185a5760405162461bcd60e51b815260206004820152601060248201526f696e7375666669656e742066756e647360801b604482015260640161043e565b6107086001600160a01b0383163383611729565b6000606461187d605084611bd6565b6106379190611bed565b600061189c6001600160a01b038416836118ea565b905080516000141580156118c15750808060200190518101906118bf9190611cb1565b155b1561175a57604051635274afe760e01b81526001600160a01b038416600482015260240161043e565b6060610f698383600084600080856001600160a01b031684866040516119109190611cd3565b60006040518083038185875af1925050503d806000811461194d576040519150601f19603f3d011682016040523d82523d6000602084013e611952565b606091505b509150915061196286838361196c565b9695505050505050565b6060826119815761197c826119c8565b610f69565b815115801561199857506001600160a01b0384163b155b156119c157604051639996b31560e01b81526001600160a01b038516600482015260240161043e565b5080610f69565b8051156119d85780518082602001fd5b604051630a12f52160e11b815260040160405180910390fd5b80356001600160a01b0381168114611a0857600080fd5b919050565b600060208284031215611a1f57600080fd5b610f69826119f1565b60008060408385031215611a3b57600080fd5b611a44836119f1565b9150611a52602084016119f1565b90509250929050565b60008060408385031215611a6e57600080fd5b82359150611a52602084016119f1565b60008060408385031215611a9157600080fd5b611a9a836119f1565b946020939093013593505050565b600080600060608486031215611abd57600080fd5b83359250611acd602085016119f1565b9150611adb604085016119f1565b90509250925092565b60008060008060808587031215611afa57600080fd5b84359350611b0a602086016119f1565b93969395505050506040820135916060013590565b6020808252601f908201527f5265766572742061646472657373207a65726f206e6f7420616c6c6f77656400604082015260600190565b805169ffffffffffffffffffff81168114611a0857600080fd5b600080600080600060a08688031215611b8857600080fd5b611b9186611b56565b9450602086015193506040860151925060608601519150611bb460808701611b56565b90509295509295909350565b634e487b7160e01b600052601160045260246000fd5b808202811582820484141761063757610637611bc0565b600082611c0a57634e487b7160e01b600052601260045260246000fd5b500490565b600060208284031215611c2157600080fd5b5051919050565b8181038181111561063757610637611bc0565b60208082526017908201527f5265766572743a206e6f742077686974656c6973746564000000000000000000604082015260600190565b60208082526012908201527114995d995c9d0e9e995c9bc8185b5bdd5b9d60721b604082015260600190565b8082018082111561063757610637611bc0565b600060208284031215611cc357600080fd5b81518015158114610f6957600080fd5b6000825160005b81811015611cf45760208186018101518583015201611cda565b50600092019182525091905056fea26469706673582212202de2fb21c2d9196902a2d3d0e710ae1a149e7152741e0f767fe3f9d4af418f8164736f6c63430008140033",
    "linkReferences": {}
  },
  "methodIdentifiers": {
    "BORROW_RATE()": "602839db",
    "COLLATERAL_FACTOR()": "17f49e05",
    "LIQUIDATION_FACTOR()": "dcdb0c03",
    "LIQUIDATION_REWARDS()": "d1c41d50",
    "borrow(uint256,address)": "4b3fd148",
    "borrowAllowed(uint256,address,uint256,uint256)": "e782e68d",
    "deposit(address,uint256)": "47e7ef24",
    "getUSDvalue(uint256,address)": "372d4ff8",
    "getUserBorrowAmount(address)": "88c5ba1b",
    "getUserDepositAmount(address)": "0cec2a76",
    "liquidate(address,address)": "86b9d81f",
    "liquidateAllowed(uint256,address,address)": "8bcede84",
    "owner()": "8da5cb5b",
    "renounceOwnership()": "715018a6",
    "repay(uint256,address)": "acb70815",
    "rewards()": "9ec5a894",
    "tokenToChainlinkPriceFeed(address)": "1e6ce634",
    "transferOwnership(address)": "f2fde38b",
    "uSDToken()": "694f86f7",
    "updateRewards()": "3e158b0c",
    "userBorrow(address,address)": "8dc87660",
    "userDeposit(address,address)": "8629b6b2",
    "whitelistToken(address,address)": "364f01a6",
    "withdraw(address,uint256)": "f3fef3a3"
  },
  "id": 32
}