{
  "abi": [
    {
      "inputs": [
        {
          "internalType": "address",
          "name": "_uSDToken",
          "type": "address"
        }
      ],
      "stateMutability": "nonpayable",
      "type": "constructor"
    },
    {
      "inputs": [
        {
          "internalType": "address",
          "name": "target",
          "type": "address"
        }
      ],
      "name": "AddressEmptyCode",
      "type": "error"
    },
    {
      "inputs": [
        {
          "internalType": "address",
          "name": "account",
          "type": "address"
        }
      ],
      "name": "AddressInsufficientBalance",
      "type": "error"
    },
    {
      "inputs": [
        {
          "internalType": "string",
          "name": "NoInterests",
          "type": "string"
        }
      ],
      "name": "BadDebt",
      "type": "error"
    },
    {
      "inputs": [
        {
          "internalType": "string",
          "name": "failed",
          "type": "string"
        }
      ],
      "name": "ChainLinkFailed",
      "type": "error"
    },
    {
      "inputs": [],
      "name": "FailedInnerCall",
      "type": "error"
    },
    {
      "inputs": [
        {
          "internalType": "address",
          "name": "owner",
          "type": "address"
        }
      ],
      "name": "OwnableInvalidOwner",
      "type": "error"
    },
    {
      "inputs": [
        {
          "internalType": "address",
          "name": "account",
          "type": "address"
        }
      ],
      "name": "OwnableUnauthorizedAccount",
      "type": "error"
    },
    {
      "inputs": [],
      "name": "ReentrancyGuardReentrantCall",
      "type": "error"
    },
    {
      "inputs": [
        {
          "internalType": "address",
          "name": "token",
          "type": "address"
        }
      ],
      "name": "SafeERC20FailedOperation",
      "type": "error"
    },
    {
      "anonymous": false,
      "inputs": [
        {
          "indexed": true,
          "internalType": "address",
          "name": "user_",
          "type": "address"
        },
        {
          "indexed": false,
          "internalType": "uint256",
          "name": "amount_",
          "type": "uint256"
        }
      ],
      "name": "BORROWED",
      "type": "event"
    },
    {
      "anonymous": false,
      "inputs": [
        {
          "indexed": true,
          "internalType": "address",
          "name": "token_",
          "type": "address"
        },
        {
          "indexed": true,
          "internalType": "address",
          "name": "user_",
          "type": "address"
        },
        {
          "indexed": false,
          "internalType": "uint256",
          "name": "amount_",
          "type": "uint256"
        }
      ],
      "name": "DEPOSITED",
      "type": "event"
    },
    {
      "anonymous": false,
      "inputs": [
        {
          "indexed": true,
          "internalType": "address",
          "name": "token_",
          "type": "address"
        },
        {
          "indexed": true,
          "internalType": "address",
          "name": "user_",
          "type": "address"
        },
        {
          "indexed": false,
          "internalType": "uint256",
          "name": "amount_",
          "type": "uint256"
        }
      ],
      "name": "LIQUIDATED",
      "type": "event"
    },
    {
      "anonymous": false,
      "inputs": [
        {
          "indexed": true,
          "internalType": "address",
          "name": "previousOwner",
          "type": "address"
        },
        {
          "indexed": true,
          "internalType": "address",
          "name": "newOwner",
          "type": "address"
        }
      ],
      "name": "OwnershipTransferred",
      "type": "event"
    },
    {
      "anonymous": false,
      "inputs": [
        {
          "indexed": true,
          "internalType": "address",
          "name": "token_",
          "type": "address"
        },
        {
          "indexed": true,
          "internalType": "address",
          "name": "user_",
          "type": "address"
        },
        {
          "indexed": false,
          "internalType": "uint256",
          "name": "amount_",
          "type": "uint256"
        }
      ],
      "name": "REPAYED",
      "type": "event"
    },
    {
      "anonymous": false,
      "inputs": [
        {
          "indexed": false,
          "internalType": "address",
          "name": "token_",
          "type": "address"
        }
      ],
      "name": "WHITELISTED",
      "type": "event"
    },
    {
      "anonymous": false,
      "inputs": [
        {
          "indexed": true,
          "internalType": "address",
          "name": "token_",
          "type": "address"
        },
        {
          "indexed": true,
          "internalType": "address",
          "name": "user_",
          "type": "address"
        },
        {
          "indexed": false,
          "internalType": "uint256",
          "name": "amount_",
          "type": "uint256"
        }
      ],
      "name": "WITHDRAWED",
      "type": "event"
    },
    {
      "inputs": [],
      "name": "BORROW_RATE",
      "outputs": [
        {
          "internalType": "uint256",
          "name": "",
          "type": "uint256"
        }
      ],
      "stateMutability": "view",
      "type": "function"
    },
    {
      "inputs": [],
      "name": "COLLATERAL_FACTOR",
      "outputs": [
        {
          "internalType": "uint256",
          "name": "",
          "type": "uint256"
        }
      ],
      "stateMutability": "view",
      "type": "function"
    },
    {
      "inputs": [],
      "name": "LIQUIDATION_FACTOR",
      "outputs": [
        {
          "internalType": "uint256",
          "name": "",
          "type": "uint256"
        }
      ],
      "stateMutability": "view",
      "type": "function"
    },
    {
      "inputs": [],
      "name": "LIQUIDATION_REWARDS",
      "outputs": [
        {
          "internalType": "uint256",
          "name": "",
          "type": "uint256"
        }
      ],
      "stateMutability": "view",
      "type": "function"
    },
    {
      "inputs": [
        {
          "internalType": "uint256",
          "name": "amount",
          "type": "uint256"
        },
        {
          "internalType": "address",
          "name": "token",
          "type": "address"
        }
      ],
      "name": "borrow",
      "outputs": [],
      "stateMutability": "nonpayable",
      "type": "function"
    },
    {
      "inputs": [
        {
          "internalType": "uint256",
          "name": "collateralValue",
          "type": "uint256"
        },
        {
          "internalType": "address",
          "name": "token",
          "type": "address"
        },
        {
          "internalType": "uint256",
          "name": "amountToBorrow",
          "type": "uint256"
        },
        {
          "internalType": "uint256",
          "name": "oldBorrow",
          "type": "uint256"
        }
      ],
      "name": "borrowAllowed",
      "outputs": [
        {
          "internalType": "bool",
          "name": "allow",
          "type": "bool"
        }
      ],
      "stateMutability": "view",
      "type": "function"
    },
    {
      "inputs": [
        {
          "internalType": "address",
          "name": "token",
          "type": "address"
        },
        {
          "internalType": "uint256",
          "name": "amount",
          "type": "uint256"
        }
      ],
      "name": "deposit",
      "outputs": [],
      "stateMutability": "nonpayable",
      "type": "function"
    },
    {
      "inputs": [
        {
          "internalType": "uint256",
          "name": "collateralValue",
          "type": "uint256"
        },
        {
          "internalType": "address",
          "name": "token",
          "type": "address"
        }
      ],
      "name": "getUSDvalue",
      "outputs": [
        {
          "internalType": "uint256",
          "name": "",
          "type": "uint256"
        }
      ],
      "stateMutability": "view",
      "type": "function"
    },
    {
      "inputs": [
        {
          "internalType": "address",
          "name": "token",
          "type": "address"
        },
        {
          "internalType": "address",
          "name": "account",
          "type": "address"
        }
      ],
      "name": "liquidate",
      "outputs": [],
      "stateMutability": "nonpayable",
      "type": "function"
    },
    {
      "inputs": [
        {
          "internalType": "uint256",
          "name": "collateralValue",
          "type": "uint256"
        },
        {
          "internalType": "address",
          "name": "token",
          "type": "address"
        },
        {
          "internalType": "address",
          "name": "borrower",
          "type": "address"
        }
      ],
      "name": "liquidateAllowed",
      "outputs": [
        {
          "internalType": "bool",
          "name": "allow",
          "type": "bool"
        }
      ],
      "stateMutability": "view",
      "type": "function"
    },
    {
      "inputs": [],
      "name": "owner",
      "outputs": [
        {
          "internalType": "address",
          "name": "",
          "type": "address"
        }
      ],
      "stateMutability": "view",
      "type": "function"
    },
    {
      "inputs": [],
      "name": "renounceOwnership",
      "outputs": [],
      "stateMutability": "nonpayable",
      "type": "function"
    },
    {
      "inputs": [
        {
          "internalType": "uint256",
          "name": "amount",
          "type": "uint256"
        },
        {
          "internalType": "address",
          "name": "token",
          "type": "address"
        }
      ],
      "name": "repay",
      "outputs": [],
      "stateMutability": "nonpayable",
      "type": "function"
    },
    {
      "inputs": [],
      "name": "rewards",
      "outputs": [
        {
          "internalType": "uint256",
          "name": "allInterestInUSD",
          "type": "uint256"
        },
        {
          "internalType": "uint256",
          "name": "rewardPerToken",
          "type": "uint256"
        }
      ],
      "stateMutability": "view",
      "type": "function"
    },
    {
      "inputs": [
        {
          "internalType": "address",
          "name": "",
          "type": "address"
        }
      ],
      "name": "tokenToChainlinkPriceFeed",
      "outputs": [
        {
          "internalType": "address",
          "name": "",
          "type": "address"
        }
      ],
      "stateMutability": "view",
      "type": "function"
    },
    {
      "inputs": [
        {
          "internalType": "address",
          "name": "newOwner",
          "type": "address"
        }
      ],
      "name": "transferOwnership",
      "outputs": [],
      "stateMutability": "nonpayable",
      "type": "function"
    },
    {
      "inputs": [],
      "name": "uSDToken",
      "outputs": [
        {
          "internalType": "contract IERC20",
          "name": "",
          "type": "address"
        }
      ],
      "stateMutability": "view",
      "type": "function"
    },
    {
      "inputs": [],
      "name": "updateRewards",
      "outputs": [],
      "stateMutability": "nonpayable",
      "type": "function"
    },
    {
      "inputs": [
        {
          "internalType": "address",
          "name": "",
          "type": "address"
        },
        {
          "internalType": "address",
          "name": "",
          "type": "address"
        }
      ],
      "name": "userBorrow",
      "outputs": [
        {
          "internalType": "uint256",
          "name": "",
          "type": "uint256"
        }
      ],
      "stateMutability": "view",
      "type": "function"
    },
    {
      "inputs": [
        {
          "internalType": "address",
          "name": "",
          "type": "address"
        },
        {
          "internalType": "address",
          "name": "",
          "type": "address"
        }
      ],
      "name": "userDeposit",
      "outputs": [
        {
          "internalType": "uint256",
          "name": "amount",
          "type": "uint256"
        },
        {
          "internalType": "uint256",
          "name": "rewardDebt",
          "type": "uint256"
        }
      ],
      "stateMutability": "view",
      "type": "function"
    },
    {
      "inputs": [
        {
          "internalType": "address",
          "name": "token",
          "type": "address"
        },
        {
          "internalType": "address",
          "name": "priceFeed",
          "type": "address"
        }
      ],
      "name": "whitelistToken",
      "outputs": [],
      "stateMutability": "nonpayable",
      "type": "function"
    },
    {
      "inputs": [
        {
          "internalType": "address",
          "name": "token",
          "type": "address"
        },
        {
          "internalType": "uint256",
          "name": "amount",
          "type": "uint256"
        }
      ],
      "name": "withdraw",
      "outputs": [],
      "stateMutability": "nonpayable",
      "type": "function"
    }
  ],
  "bytecode": {
    "object": "0x60a06040523480156200001157600080fd5b5060405162001c6f38038062001c6f8339810160408190526200003491620000cd565b33806200005b57604051631e4fbdf760e01b81526000600482015260240160405180910390fd5b62000066816200007d565b50600180556001600160a01b0316608052620000ff565b600080546001600160a01b038381166001600160a01b0319831681178455604051919092169283917f8be0079c531659141344cd1fd0a4f28419497f9722a3daafe3b4186f6b6457e09190a35050565b600060208284031215620000e057600080fd5b81516001600160a01b0381168114620000f857600080fd5b9392505050565b608051611b1c620001536000396000818161020601528181610591015281816106ed0152818161083a01528181610a1a01528181610cf101528181610f90015281816112e101526113f30152611b1c6000f3fe608060405234801561001057600080fd5b50600436106101425760003560e01c806386b9d81f116100b8578063acb708151161007c578063acb70815146102f7578063d1c41d50146101f9578063dcdb0c031461030a578063e782e68d14610312578063f2fde38b14610325578063f3fef3a31461033857600080fd5b806386b9d81f146102775780638bcede841461028a5780638da5cb5b146102ad5780638dc87660146102be5780639ec5a894146102e957600080fd5b806347e7ef241161010a57806347e7ef24146101d35780634b3fd148146101e6578063602839db146101f9578063694f86f714610201578063715018a6146102285780638629b6b21461023057600080fd5b806317f49e05146101475780631e6ce63414610162578063364f01a6146101a3578063372d4ff8146101b85780633e158b0c146101cb575b600080fd5b61014f605081565b6040519081526020015b60405180910390f35b61018b6101703660046117f1565b6002602052600090815260409020546001600160a01b031681565b6040516001600160a01b039091168152602001610159565b6101b66101b136600461180c565b61034b565b005b61014f6101c636600461183f565b61048f565b6101b6610579565b6101b66101e1366004611862565b610648565b6101b66101f436600461183f565b6107dd565b61014f600481565b61018b7f000000000000000000000000000000000000000000000000000000000000000081565b6101b6610a4a565b61026261023e36600461180c565b60056020908152600092835260408084209091529082529020805460019091015482565b60408051928352602083019190915201610159565b6101b661028536600461180c565b610a5e565b61029d61029836600461188c565b610d2d565b6040519015158152602001610159565b6000546001600160a01b031661018b565b61014f6102cc36600461180c565b600460209081526000928352604080842090915290825290205481565b600654600754610262919082565b6101b661030536600461183f565b610da0565b61014f605a81565b61029d6103203660046118c8565b610fc0565b6101b66103333660046117f1565b6110d6565b6101b6610346366004611862565b611114565b610353611479565b806001600160a01b0381166103835760405162461bcd60e51b815260040161037a90611903565b60405180910390fd5b826001600160a01b0381166103aa5760405162461bcd60e51b815260040161037a90611903565b6001600160a01b03841660009081526003602052604090205460ff16156104135760405162461bcd60e51b815260206004820152601c60248201527f5265766572743a20546f6b656e20616c72656164792065786973747300000000604482015260640161037a565b6001600160a01b0384811660008181526003602090815260408083208054600160ff19909116179055600282529182902080546001600160a01b03191694881694909417909355519081527f0b4be8cc61a5810a6553c98a445d21dcfead52b5d4d4d2e823d4cb5172d9fd65910160405180910390a150505050565b6001600160a01b03808216600090815260026020526040808220548151633fabe5a360e21b8152915192931691829163feaf968c9160048083019260a09291908290030181865afa925050508015610504575060408051601f3d908101601f1916820190925261050191810190611954565b60015b61055157604051637e61334960e01b815260206004820152601860248201527f436861696e6b4c696e6b2064617461206e6f7420736166650000000000000000604482015260640161037a565b6305f5e1006105608a866119ba565b61056a91906119d1565b96505050505050505b92915050565b6040516370a0823160e01b81523060048201526000907f00000000000000000000000000000000000000000000000000000000000000006001600160a01b0316906370a0823190602401602060405180830381865afa1580156105e0573d6000803e3d6000fd5b505050506040513d601f19601f8201168201806040525081019061060491906119f3565b6006549091506000906106179083611a0c565b9050811561064457600654819061063690670de0b6b3a76400006119ba565b61064091906119d1565b6007555b5050565b6001600160a01b038216600090815260036020526040902054829060ff166106825760405162461bcd60e51b815260040161037a90611a1f565b81600081116106a35760405162461bcd60e51b815260040161037a90611a56565b6106ab610579565b3360009081526005602090815260408083206001600160a01b0388168452909152812080548592906106de908490611a82565b90915550506001600160a01b037f0000000000000000000000000000000000000000000000000000000000000000811690851603610782576007543360009081526005602090815260408083206001600160a01b0389168452909152902054670de0b6b3a764000091610750916119ba565b61075a91906119d1565b3360009081526005602090815260408083206001600160a01b03891684529091529020600101555b60405183815233906001600160a01b038616907f046f14ee76938377d255f0d2e48b3352fca2236c9296a48d997fee837cf4ebae9060200160405180910390a36107d76001600160a01b0385163330866114a6565b50505050565b81600081116107fe5760405162461bcd60e51b815260040161037a90611a56565b6001600160a01b038216600090815260036020526040902054829060ff166108385760405162461bcd60e51b815260040161037a90611a1f565b7f00000000000000000000000000000000000000000000000000000000000000006001600160a01b0316836001600160a01b0316036108af5760405162461bcd60e51b81526020600482015260136024820152721e5bdd4818d85b9d08189bdc9c9bddc81554d1606a1b604482015260640161037a565b3360009081526005602090815260408083206001600160a01b0387168452909152902054806109205760405162461bcd60e51b815260206004820152601a60248201527f5265766572743a20696e73756666696369656e742066756e6473000000000000604482015260640161037a565b3360009081526004602090815260408083206001600160a01b03881684529091528120549061095183878985610fc0565b9050806109a05760405162461bcd60e51b815260206004820152601c60248201527f5265766572743a20424f52524f574544206e6f7420616c6c6f77656400000000604482015260640161037a565b3360009081526004602090815260408083206001600160a01b038a168452909152812080548992906109d3908490611a82565b909155505060405187815233907f4d64aec3a72bfec8a86df3b7338f316e28fc09c1781a71ae3612ceaec9e4729f9060200160405180910390a2610a416001600160a01b037f000000000000000000000000000000000000000000000000000000000000000016338961150d565b50505050505050565b610a52611479565b610a5c6000611543565b565b6001600160a01b038216600090815260036020526040902054829060ff16610a985760405162461bcd60e51b815260040161037a90611a1f565b816001600160a01b038116610abf5760405162461bcd60e51b815260040161037a90611903565b6001600160a01b03808416600090815260046020908152604080832093881683529290522054610b315760405162461bcd60e51b815260206004820181905260248201527f63686f6f736520616e6f7468657220746f6b656e20746f206c69717564617465604482015260640161037a565b6001600160a01b03808416600090815260056020908152604080832093881683529290529081205490610b65828787610d2d565b905080610bb45760405162461bcd60e51b815260206004820152601b60248201527f6163636f756e742063616e2774206265204c4951554944415445440000000000604482015260640161037a565b6001600160a01b038086166000908152600460208181526040808420948b168452939052918120549091606491610beb91906119ba565b610bf591906119d1565b6001600160a01b038088166000908152600460209081526040808320938c1683529290529081205491925090610c2c908390611a0c565b9050838110610c705760405162461bcd60e51b815260206004820152601060248201526f1a5b5c1c9bdc195c881c185e5b595b9d60821b604482015260640161037a565b6001600160a01b038781166000818152600460209081526040808320948d168084529482528083208390558383526005825280832085845282528083209290925590518481529192917ff884e3400a8025dab4c7b15e040c03fd4b462273f178b85b0ce73d8b1eca2fc9910160405180910390a3610d196001600160a01b037f0000000000000000000000000000000000000000000000000000000000000000163330846114a6565b610d238885611593565b5050505050505050565b600080610d3a858561048f565b905060006064610d4b605a846119ba565b610d5591906119d1565b6001600160a01b038086166000908152600460209081526040808320938a1683529290522054909150808211610d915760019350505050610d99565b600093505050505b9392505050565b8160008111610dc15760405162461bcd60e51b815260040161037a90611a56565b6001600160a01b038216600090815260036020526040902054829060ff16610dfb5760405162461bcd60e51b815260040161037a90611a1f565b3360009081526004602090815260408083206001600160a01b0387168452909152902054610e765760405162461bcd60e51b815260206004820152602260248201527f5265766572743a20686173206265656e204c495155494441544544206265666f604482015261726560f01b606482015260840161037a565b3360009081526004602081815260408084206001600160a01b03881685529091528220549190606490610ea990846119ba565b610eb391906119d1565b9050610ebf8183611a82565b861015610f0e5760405162461bcd60e51b815260206004820152601f60248201527f5265766572743a2055736572206d75737420726570617920696e2066756c6c00604482015260640161037a565b3360009081526004602090815260408083206001600160a01b0389168452909152812055600654610f40908290611a82565b60065560405186815233906001600160a01b038716907fbcb7ae9ee8d027a568d1fe7507c2d4e6749f3bd7f50097e606f1a1fda38fb4039060200160405180910390a3610fb86001600160a01b037f0000000000000000000000000000000000000000000000000000000000000000163330896114a6565b505050505050565b600080610fcd868661048f565b90506000610fda82611652565b905083156110645780610fed8587611a82565b11156110595760405162461bcd60e51b815260206004820152603560248201527f5265766572743a20596f75206e65656420746f20746f7020796f757220636f6c6044820152741b185d195c985b081e5bdd48189bdc9c9bddc8108d605a1b606482015260840161037a565b6001925050506110ce565b808511156110595760405162461bcd60e51b815260206004820152603160248201527f5265766572743a20746f7020636f6c6c61746572616c206f722052656475636560448201527020616d6f756e7420746f20626f72726f7760781b606482015260840161037a565b949350505050565b6110de611479565b6001600160a01b03811661110857604051631e4fbdf760e01b81526000600482015260240161037a565b61111181611543565b50565b6001600160a01b038216600090815260036020526040902054829060ff1661114e5760405162461bcd60e51b815260040161037a90611a1f565b816000811161116f5760405162461bcd60e51b815260040161037a90611a56565b611177610579565b3360009081526004602090815260408083206001600160a01b0388168452909152902054156111e85760405162461bcd60e51b815260206004820181905260248201527f5265766572743a20596f7520626f72726f776564207265706179206669727374604482015260640161037a565b3360009081526005602090815260408083206001600160a01b0388168452909152902054838110156112675760405162461bcd60e51b815260206004820152602260248201527f5265766572743a20416d6f756e7420746f20776974686472617720696e2068696044820152610ced60f31b606482015260840161037a565b3360009081526005602090815260408083206001600160a01b03891684529091528120805486929061129a908490611a0c565b909155505060405184815233906001600160a01b038716907f07b5e730d86800ad649baffc0308439b303251779d82dd3df0dc707fc0c35d6f9060200160405180910390a37f00000000000000000000000000000000000000000000000000000000000000006001600160a01b0316856001600160a01b031603611468573360009081526005602090815260408083206001600160a01b0389168452909152812060010154600754670de0b6b3a76400009061135690856119ba565b61136091906119d1565b61136a9190611a0c565b9050801561141d576007543360009081526005602090815260408083206001600160a01b038b168452909152902054670de0b6b3a7640000916113ac916119ba565b6113b691906119d1565b3360009081526005602090815260408083206001600160a01b038b1684529091529020600101556006546113eb908290611a0c565b6006556114187f000000000000000000000000000000000000000000000000000000000000000082611593565b611466565b604051639ea01b7760e01b815260206004820152601860248201527f6e6f20696e746572657374206163636f6d6d756c617465640000000000000000604482015260640161037a565b505b6114728585611593565b5050505050565b6000546001600160a01b03163314610a5c5760405163118cdaa760e01b815233600482015260240161037a565b6040516001600160a01b0384811660248301528381166044830152606482018390526107d79186918216906323b872dd906084015b604051602081830303815290604052915060e01b6020820180516001600160e01b03838183161783525050505061166b565b6040516001600160a01b0383811660248301526044820183905261153e91859182169063a9059cbb906064016114db565b505050565b600080546001600160a01b038381166001600160a01b0319831681178455604051919092169283917f8be0079c531659141344cd1fd0a4f28419497f9722a3daafe3b4186f6b6457e09190a35050565b6040516370a0823160e01b815230600482015281906001600160a01b038416906370a0823190602401602060405180830381865afa1580156115d9573d6000803e3d6000fd5b505050506040513d601f19601f820116820180604052508101906115fd91906119f3565b101561163e5760405162461bcd60e51b815260206004820152601060248201526f696e7375666669656e742066756e647360801b604482015260640161037a565b6106446001600160a01b038316338361150d565b600060646116616050846119ba565b61057391906119d1565b60006116806001600160a01b038416836116ce565b905080516000141580156116a55750808060200190518101906116a39190611a95565b155b1561153e57604051635274afe760e01b81526001600160a01b038416600482015260240161037a565b6060610d998383600084600080856001600160a01b031684866040516116f49190611ab7565b60006040518083038185875af1925050503d8060008114611731576040519150601f19603f3d011682016040523d82523d6000602084013e611736565b606091505b5091509150611746868383611750565b9695505050505050565b60608261176557611760826117ac565b610d99565b815115801561177c57506001600160a01b0384163b155b156117a557604051639996b31560e01b81526001600160a01b038516600482015260240161037a565b5080610d99565b8051156117bc5780518082602001fd5b604051630a12f52160e11b815260040160405180910390fd5b80356001600160a01b03811681146117ec57600080fd5b919050565b60006020828403121561180357600080fd5b610d99826117d5565b6000806040838503121561181f57600080fd5b611828836117d5565b9150611836602084016117d5565b90509250929050565b6000806040838503121561185257600080fd5b82359150611836602084016117d5565b6000806040838503121561187557600080fd5b61187e836117d5565b946020939093013593505050565b6000806000606084860312156118a157600080fd5b833592506118b1602085016117d5565b91506118bf604085016117d5565b90509250925092565b600080600080608085870312156118de57600080fd5b843593506118ee602086016117d5565b93969395505050506040820135916060013590565b6020808252601f908201527f5265766572742061646472657373207a65726f206e6f7420616c6c6f77656400604082015260600190565b805169ffffffffffffffffffff811681146117ec57600080fd5b600080600080600060a0868803121561196c57600080fd5b6119758661193a565b94506020860151935060408601519250606086015191506119986080870161193a565b90509295509295909350565b634e487b7160e01b600052601160045260246000fd5b8082028115828204841417610573576105736119a4565b6000826119ee57634e487b7160e01b600052601260045260246000fd5b500490565b600060208284031215611a0557600080fd5b5051919050565b81810381811115610573576105736119a4565b60208082526017908201527f5265766572743a206e6f742077686974656c6973746564000000000000000000604082015260600190565b60208082526012908201527114995d995c9d0e9e995c9bc8185b5bdd5b9d60721b604082015260600190565b80820180821115610573576105736119a4565b600060208284031215611aa757600080fd5b81518015158114610d9957600080fd5b6000825160005b81811015611ad85760208186018101518583015201611abe565b50600092019182525091905056fea264697066735822122095cece5ae68cdd373ce3bcde9ac416060b38d775ed56b96a24b5b9482374def764736f6c63430008140033",
    "linkReferences": {}
  },
  "methodIdentifiers": {
    "BORROW_RATE()": "602839db",
    "COLLATERAL_FACTOR()": "17f49e05",
    "LIQUIDATION_FACTOR()": "dcdb0c03",
    "LIQUIDATION_REWARDS()": "d1c41d50",
    "borrow(uint256,address)": "4b3fd148",
    "borrowAllowed(uint256,address,uint256,uint256)": "e782e68d",
    "deposit(address,uint256)": "47e7ef24",
    "getUSDvalue(uint256,address)": "372d4ff8",
    "liquidate(address,address)": "86b9d81f",
    "liquidateAllowed(uint256,address,address)": "8bcede84",
    "owner()": "8da5cb5b",
    "renounceOwnership()": "715018a6",
    "repay(uint256,address)": "acb70815",
    "rewards()": "9ec5a894",
    "tokenToChainlinkPriceFeed(address)": "1e6ce634",
    "transferOwnership(address)": "f2fde38b",
    "uSDToken()": "694f86f7",
    "updateRewards()": "3e158b0c",
    "userBorrow(address,address)": "8dc87660",
    "userDeposit(address,address)": "8629b6b2",
    "whitelistToken(address,address)": "364f01a6",
    "withdraw(address,uint256)": "f3fef3a3"
  },
  "id": 32
}