{
  "abi": [
    {
      "inputs": [
        {
          "internalType": "address",
          "name": "target",
          "type": "address"
        }
      ],
      "name": "AddressEmptyCode",
      "type": "error"
    },
    {
      "inputs": [
        {
          "internalType": "address",
          "name": "account",
          "type": "address"
        }
      ],
      "name": "AddressInsufficientBalance",
      "type": "error"
    },
    {
      "inputs": [
        {
          "internalType": "string",
          "name": "NoInterests",
          "type": "string"
        }
      ],
      "name": "BadDebt",
      "type": "error"
    },
    {
      "inputs": [
        {
          "internalType": "string",
          "name": "failed",
          "type": "string"
        }
      ],
      "name": "ChainLinkFailed",
      "type": "error"
    },
    {
      "inputs": [],
      "name": "FailedInnerCall",
      "type": "error"
    },
    {
      "inputs": [
        {
          "internalType": "address",
          "name": "owner",
          "type": "address"
        }
      ],
      "name": "OwnableInvalidOwner",
      "type": "error"
    },
    {
      "inputs": [
        {
          "internalType": "address",
          "name": "account",
          "type": "address"
        }
      ],
      "name": "OwnableUnauthorizedAccount",
      "type": "error"
    },
    {
      "inputs": [],
      "name": "ReentrancyGuardReentrantCall",
      "type": "error"
    },
    {
      "inputs": [
        {
          "internalType": "address",
          "name": "token",
          "type": "address"
        }
      ],
      "name": "SafeERC20FailedOperation",
      "type": "error"
    },
    {
      "anonymous": false,
      "inputs": [
        {
          "indexed": true,
          "internalType": "address",
          "name": "user_",
          "type": "address"
        },
        {
          "indexed": false,
          "internalType": "uint256",
          "name": "amount_",
          "type": "uint256"
        }
      ],
      "name": "BORROWED",
      "type": "event"
    },
    {
      "anonymous": false,
      "inputs": [
        {
          "indexed": true,
          "internalType": "address",
          "name": "token_",
          "type": "address"
        },
        {
          "indexed": true,
          "internalType": "address",
          "name": "user_",
          "type": "address"
        },
        {
          "indexed": false,
          "internalType": "uint256",
          "name": "amount_",
          "type": "uint256"
        }
      ],
      "name": "DEPOSITED",
      "type": "event"
    },
    {
      "anonymous": false,
      "inputs": [
        {
          "indexed": true,
          "internalType": "address",
          "name": "token_",
          "type": "address"
        },
        {
          "indexed": true,
          "internalType": "address",
          "name": "user_",
          "type": "address"
        },
        {
          "indexed": false,
          "internalType": "uint256",
          "name": "amount_",
          "type": "uint256"
        }
      ],
      "name": "LIQUIDATED",
      "type": "event"
    },
    {
      "anonymous": false,
      "inputs": [
        {
          "indexed": true,
          "internalType": "address",
          "name": "previousOwner",
          "type": "address"
        },
        {
          "indexed": true,
          "internalType": "address",
          "name": "newOwner",
          "type": "address"
        }
      ],
      "name": "OwnershipTransferred",
      "type": "event"
    },
    {
      "anonymous": false,
      "inputs": [
        {
          "indexed": true,
          "internalType": "address",
          "name": "token_",
          "type": "address"
        },
        {
          "indexed": true,
          "internalType": "address",
          "name": "user_",
          "type": "address"
        },
        {
          "indexed": false,
          "internalType": "uint256",
          "name": "amount_",
          "type": "uint256"
        }
      ],
      "name": "REPAYED",
      "type": "event"
    },
    {
      "anonymous": false,
      "inputs": [
        {
          "indexed": false,
          "internalType": "address",
          "name": "token_",
          "type": "address"
        }
      ],
      "name": "WHITELISTED",
      "type": "event"
    },
    {
      "anonymous": false,
      "inputs": [
        {
          "indexed": true,
          "internalType": "address",
          "name": "token_",
          "type": "address"
        },
        {
          "indexed": true,
          "internalType": "address",
          "name": "user_",
          "type": "address"
        },
        {
          "indexed": false,
          "internalType": "uint256",
          "name": "amount_",
          "type": "uint256"
        }
      ],
      "name": "WITHDRAWED",
      "type": "event"
    },
    {
      "inputs": [],
      "name": "BORROW_RATE",
      "outputs": [
        {
          "internalType": "uint256",
          "name": "",
          "type": "uint256"
        }
      ],
      "stateMutability": "view",
      "type": "function"
    },
    {
      "inputs": [],
      "name": "COLLATERAL_FACTOR",
      "outputs": [
        {
          "internalType": "uint256",
          "name": "",
          "type": "uint256"
        }
      ],
      "stateMutability": "view",
      "type": "function"
    },
    {
      "inputs": [],
      "name": "LIQUIDATION_FACTOR",
      "outputs": [
        {
          "internalType": "uint256",
          "name": "",
          "type": "uint256"
        }
      ],
      "stateMutability": "view",
      "type": "function"
    },
    {
      "inputs": [],
      "name": "LIQUIDATION_REWARDS",
      "outputs": [
        {
          "internalType": "uint256",
          "name": "",
          "type": "uint256"
        }
      ],
      "stateMutability": "view",
      "type": "function"
    },
    {
      "inputs": [
        {
          "internalType": "uint256",
          "name": "amount",
          "type": "uint256"
        },
        {
          "internalType": "address",
          "name": "token",
          "type": "address"
        }
      ],
      "name": "borrow",
      "outputs": [],
      "stateMutability": "nonpayable",
      "type": "function"
    },
    {
      "inputs": [
        {
          "internalType": "uint256",
          "name": "collateralValue",
          "type": "uint256"
        },
        {
          "internalType": "address",
          "name": "token",
          "type": "address"
        },
        {
          "internalType": "uint256",
          "name": "amountToBorrow",
          "type": "uint256"
        },
        {
          "internalType": "uint256",
          "name": "oldBorrow",
          "type": "uint256"
        }
      ],
      "name": "borrowAllowed",
      "outputs": [
        {
          "internalType": "bool",
          "name": "allow",
          "type": "bool"
        }
      ],
      "stateMutability": "view",
      "type": "function"
    },
    {
      "inputs": [
        {
          "internalType": "address",
          "name": "token",
          "type": "address"
        },
        {
          "internalType": "uint256",
          "name": "amount",
          "type": "uint256"
        }
      ],
      "name": "deposit",
      "outputs": [],
      "stateMutability": "nonpayable",
      "type": "function"
    },
    {
      "inputs": [],
      "name": "echidna_test_All",
      "outputs": [
        {
          "internalType": "bool",
          "name": "",
          "type": "bool"
        }
      ],
      "stateMutability": "pure",
      "type": "function"
    },
    {
      "inputs": [
        {
          "internalType": "uint256",
          "name": "collateralValue",
          "type": "uint256"
        },
        {
          "internalType": "address",
          "name": "token",
          "type": "address"
        }
      ],
      "name": "getUSDvalue",
      "outputs": [
        {
          "internalType": "uint256",
          "name": "",
          "type": "uint256"
        }
      ],
      "stateMutability": "view",
      "type": "function"
    },
    {
      "inputs": [
        {
          "internalType": "address",
          "name": "token",
          "type": "address"
        },
        {
          "internalType": "address",
          "name": "account",
          "type": "address"
        }
      ],
      "name": "liquidate",
      "outputs": [],
      "stateMutability": "nonpayable",
      "type": "function"
    },
    {
      "inputs": [
        {
          "internalType": "uint256",
          "name": "collateralValue",
          "type": "uint256"
        },
        {
          "internalType": "address",
          "name": "token",
          "type": "address"
        },
        {
          "internalType": "address",
          "name": "borrower",
          "type": "address"
        }
      ],
      "name": "liquidateAllowed",
      "outputs": [
        {
          "internalType": "bool",
          "name": "allow",
          "type": "bool"
        }
      ],
      "stateMutability": "view",
      "type": "function"
    },
    {
      "inputs": [],
      "name": "owner",
      "outputs": [
        {
          "internalType": "address",
          "name": "",
          "type": "address"
        }
      ],
      "stateMutability": "view",
      "type": "function"
    },
    {
      "inputs": [],
      "name": "renounceOwnership",
      "outputs": [],
      "stateMutability": "nonpayable",
      "type": "function"
    },
    {
      "inputs": [
        {
          "internalType": "uint256",
          "name": "amount",
          "type": "uint256"
        },
        {
          "internalType": "address",
          "name": "token",
          "type": "address"
        }
      ],
      "name": "repay",
      "outputs": [],
      "stateMutability": "nonpayable",
      "type": "function"
    },
    {
      "inputs": [],
      "name": "rewards",
      "outputs": [
        {
          "internalType": "uint256",
          "name": "allInterestInUSD",
          "type": "uint256"
        },
        {
          "internalType": "uint256",
          "name": "rewardPerToken",
          "type": "uint256"
        }
      ],
      "stateMutability": "view",
      "type": "function"
    },
    {
      "inputs": [],
      "name": "summerToken",
      "outputs": [
        {
          "internalType": "contract IERC20",
          "name": "",
          "type": "address"
        }
      ],
      "stateMutability": "view",
      "type": "function"
    },
    {
      "inputs": [
        {
          "internalType": "address",
          "name": "",
          "type": "address"
        }
      ],
      "name": "tokenToChainlinkPriceFeed",
      "outputs": [
        {
          "internalType": "address",
          "name": "",
          "type": "address"
        }
      ],
      "stateMutability": "view",
      "type": "function"
    },
    {
      "inputs": [
        {
          "internalType": "address",
          "name": "newOwner",
          "type": "address"
        }
      ],
      "name": "transferOwnership",
      "outputs": [],
      "stateMutability": "nonpayable",
      "type": "function"
    },
    {
      "inputs": [],
      "name": "uSDToken",
      "outputs": [
        {
          "internalType": "contract IERC20",
          "name": "",
          "type": "address"
        }
      ],
      "stateMutability": "view",
      "type": "function"
    },
    {
      "inputs": [],
      "name": "updateRewards",
      "outputs": [],
      "stateMutability": "nonpayable",
      "type": "function"
    },
    {
      "inputs": [
        {
          "internalType": "address",
          "name": "",
          "type": "address"
        },
        {
          "internalType": "address",
          "name": "",
          "type": "address"
        }
      ],
      "name": "userBorrow",
      "outputs": [
        {
          "internalType": "uint256",
          "name": "",
          "type": "uint256"
        }
      ],
      "stateMutability": "view",
      "type": "function"
    },
    {
      "inputs": [
        {
          "internalType": "address",
          "name": "",
          "type": "address"
        },
        {
          "internalType": "address",
          "name": "",
          "type": "address"
        }
      ],
      "name": "userDeposit",
      "outputs": [
        {
          "internalType": "uint256",
          "name": "amount",
          "type": "uint256"
        },
        {
          "internalType": "uint256",
          "name": "rewardDebt",
          "type": "uint256"
        }
      ],
      "stateMutability": "view",
      "type": "function"
    },
    {
      "inputs": [
        {
          "internalType": "address",
          "name": "token",
          "type": "address"
        },
        {
          "internalType": "address",
          "name": "priceFeed",
          "type": "address"
        }
      ],
      "name": "whitelistToken",
      "outputs": [],
      "stateMutability": "nonpayable",
      "type": "function"
    },
    {
      "inputs": [
        {
          "internalType": "address",
          "name": "token",
          "type": "address"
        },
        {
          "internalType": "uint256",
          "name": "amount",
          "type": "uint256"
        }
      ],
      "name": "withdraw",
      "outputs": [],
      "stateMutability": "nonpayable",
      "type": "function"
    }
  ],
  "bytecode": {
    "object": "0x60c060405234801561001057600080fd5b50736b3595068778dd592e39a122f4f5a5cf09c90fe280338061004d57604051631e4fbdf760e01b81526000600482015260240160405180910390fd5b61005681610072565b50600180556001600160a01b039182166080521660a0526100c2565b600080546001600160a01b038381166001600160a01b0319831681178455604051919092169283917f8be0079c531659141344cd1fd0a4f28419497f9722a3daafe3b4186f6b6457e09190a35050565b60805160a051611b5c61011f600039600061036901526000818161022f015281816105d10152818161072d0152818161087a01528181610a5a01528181610d3101528181610fd00152818161132101526114330152611b5c6000f3fe608060405234801561001057600080fd5b50600436106101585760003560e01c806386b9d81f116100c3578063d1c41d501161007c578063d1c41d5014610222578063dcdb0c0314610323578063e782e68d1461032b578063f2fde38b1461033e578063f3fef3a314610351578063f9ddf50d1461036457600080fd5b806386b9d81f146102a05780638bcede84146102b35780638da5cb5b146102c65780638dc87660146102d75780639ec5a89414610302578063acb708151461031057600080fd5b80634b3fd148116101155780634b3fd148146101fc5780634c87cdd91461020f578063602839db14610222578063694f86f71461022a578063715018a6146102515780638629b6b21461025957600080fd5b806317f49e051461015d5780631e6ce63414610178578063364f01a6146101b9578063372d4ff8146101ce5780633e158b0c146101e157806347e7ef24146101e9575b600080fd5b610165605081565b6040519081526020015b60405180910390f35b6101a1610186366004611831565b6002602052600090815260409020546001600160a01b031681565b6040516001600160a01b03909116815260200161016f565b6101cc6101c736600461184c565b61038b565b005b6101656101dc36600461187f565b6104cf565b6101cc6105b9565b6101cc6101f73660046118a2565b610688565b6101cc61020a36600461187f565b61081d565b60015b604051901515815260200161016f565b610165600481565b6101a17f000000000000000000000000000000000000000000000000000000000000000081565b6101cc610a8a565b61028b61026736600461184c565b60056020908152600092835260408084209091529082529020805460019091015482565b6040805192835260208301919091520161016f565b6101cc6102ae36600461184c565b610a9e565b6102126102c13660046118cc565b610d6d565b6000546001600160a01b03166101a1565b6101656102e536600461184c565b600460209081526000928352604080842090915290825290205481565b60065460075461028b919082565b6101cc61031e36600461187f565b610de0565b610165605a81565b610212610339366004611908565b611000565b6101cc61034c366004611831565b611116565b6101cc61035f3660046118a2565b611154565b6101a17f000000000000000000000000000000000000000000000000000000000000000081565b6103936114b9565b806001600160a01b0381166103c35760405162461bcd60e51b81526004016103ba90611943565b60405180910390fd5b826001600160a01b0381166103ea5760405162461bcd60e51b81526004016103ba90611943565b6001600160a01b03841660009081526003602052604090205460ff16156104535760405162461bcd60e51b815260206004820152601c60248201527f5265766572743a20546f6b656e20616c7265616479206578697374730000000060448201526064016103ba565b6001600160a01b0384811660008181526003602090815260408083208054600160ff19909116179055600282529182902080546001600160a01b03191694881694909417909355519081527f0b4be8cc61a5810a6553c98a445d21dcfead52b5d4d4d2e823d4cb5172d9fd65910160405180910390a150505050565b6001600160a01b03808216600090815260026020526040808220548151633fabe5a360e21b8152915192931691829163feaf968c9160048083019260a09291908290030181865afa925050508015610544575060408051601f3d908101601f1916820190925261054191810190611994565b60015b61059157604051637e61334960e01b815260206004820152601860248201527f436861696e6b4c696e6b2064617461206e6f742073616665000000000000000060448201526064016103ba565b6305f5e1006105a08a866119fa565b6105aa9190611a11565b96505050505050505b92915050565b6040516370a0823160e01b81523060048201526000907f00000000000000000000000000000000000000000000000000000000000000006001600160a01b0316906370a0823190602401602060405180830381865afa158015610620573d6000803e3d6000fd5b505050506040513d601f19601f820116820180604052508101906106449190611a33565b6006549091506000906106579083611a4c565b9050811561068457600654819061067690670de0b6b3a76400006119fa565b6106809190611a11565b6007555b5050565b6001600160a01b038216600090815260036020526040902054829060ff166106c25760405162461bcd60e51b81526004016103ba90611a5f565b81600081116106e35760405162461bcd60e51b81526004016103ba90611a96565b6106eb6105b9565b3360009081526005602090815260408083206001600160a01b03881684529091528120805485929061071e908490611ac2565b90915550506001600160a01b037f00000000000000000000000000000000000000000000000000000000000000008116908516036107c2576007543360009081526005602090815260408083206001600160a01b0389168452909152902054670de0b6b3a764000091610790916119fa565b61079a9190611a11565b3360009081526005602090815260408083206001600160a01b03891684529091529020600101555b60405183815233906001600160a01b038616907f046f14ee76938377d255f0d2e48b3352fca2236c9296a48d997fee837cf4ebae9060200160405180910390a36108176001600160a01b0385163330866114e6565b50505050565b816000811161083e5760405162461bcd60e51b81526004016103ba90611a96565b6001600160a01b038216600090815260036020526040902054829060ff166108785760405162461bcd60e51b81526004016103ba90611a5f565b7f00000000000000000000000000000000000000000000000000000000000000006001600160a01b0316836001600160a01b0316036108ef5760405162461bcd60e51b81526020600482015260136024820152721e5bdd4818d85b9d08189bdc9c9bddc81554d1606a1b60448201526064016103ba565b3360009081526005602090815260408083206001600160a01b0387168452909152902054806109605760405162461bcd60e51b815260206004820152601a60248201527f5265766572743a20696e73756666696369656e742066756e647300000000000060448201526064016103ba565b3360009081526004602090815260408083206001600160a01b03881684529091528120549061099183878985611000565b9050806109e05760405162461bcd60e51b815260206004820152601c60248201527f5265766572743a20424f52524f574544206e6f7420616c6c6f7765640000000060448201526064016103ba565b3360009081526004602090815260408083206001600160a01b038a16845290915281208054899290610a13908490611ac2565b909155505060405187815233907f4d64aec3a72bfec8a86df3b7338f316e28fc09c1781a71ae3612ceaec9e4729f9060200160405180910390a2610a816001600160a01b037f000000000000000000000000000000000000000000000000000000000000000016338961154d565b50505050505050565b610a926114b9565b610a9c6000611583565b565b6001600160a01b038216600090815260036020526040902054829060ff16610ad85760405162461bcd60e51b81526004016103ba90611a5f565b816001600160a01b038116610aff5760405162461bcd60e51b81526004016103ba90611943565b6001600160a01b03808416600090815260046020908152604080832093881683529290522054610b715760405162461bcd60e51b815260206004820181905260248201527f63686f6f736520616e6f7468657220746f6b656e20746f206c6971756461746560448201526064016103ba565b6001600160a01b03808416600090815260056020908152604080832093881683529290529081205490610ba5828787610d6d565b905080610bf45760405162461bcd60e51b815260206004820152601b60248201527f6163636f756e742063616e2774206265204c495155494441544544000000000060448201526064016103ba565b6001600160a01b038086166000908152600460208181526040808420948b168452939052918120549091606491610c2b91906119fa565b610c359190611a11565b6001600160a01b038088166000908152600460209081526040808320938c1683529290529081205491925090610c6c908390611a4c565b9050838110610cb05760405162461bcd60e51b815260206004820152601060248201526f1a5b5c1c9bdc195c881c185e5b595b9d60821b60448201526064016103ba565b6001600160a01b038781166000818152600460209081526040808320948d168084529482528083208390558383526005825280832085845282528083209290925590518481529192917ff884e3400a8025dab4c7b15e040c03fd4b462273f178b85b0ce73d8b1eca2fc9910160405180910390a3610d596001600160a01b037f0000000000000000000000000000000000000000000000000000000000000000163330846114e6565b610d6388856115d3565b5050505050505050565b600080610d7a85856104cf565b905060006064610d8b605a846119fa565b610d959190611a11565b6001600160a01b038086166000908152600460209081526040808320938a1683529290522054909150808211610dd15760019350505050610dd9565b600093505050505b9392505050565b8160008111610e015760405162461bcd60e51b81526004016103ba90611a96565b6001600160a01b038216600090815260036020526040902054829060ff16610e3b5760405162461bcd60e51b81526004016103ba90611a5f565b3360009081526004602090815260408083206001600160a01b0387168452909152902054610eb65760405162461bcd60e51b815260206004820152602260248201527f5265766572743a20686173206265656e204c495155494441544544206265666f604482015261726560f01b60648201526084016103ba565b3360009081526004602081815260408084206001600160a01b03881685529091528220549190606490610ee990846119fa565b610ef39190611a11565b9050610eff8183611ac2565b861015610f4e5760405162461bcd60e51b815260206004820152601f60248201527f5265766572743a2055736572206d75737420726570617920696e2066756c6c0060448201526064016103ba565b3360009081526004602090815260408083206001600160a01b0389168452909152812055600654610f80908290611ac2565b60065560405186815233906001600160a01b038716907fbcb7ae9ee8d027a568d1fe7507c2d4e6749f3bd7f50097e606f1a1fda38fb4039060200160405180910390a3610ff86001600160a01b037f0000000000000000000000000000000000000000000000000000000000000000163330896114e6565b505050505050565b60008061100d86866104cf565b9050600061101a82611692565b905083156110a4578061102d8587611ac2565b11156110995760405162461bcd60e51b815260206004820152603560248201527f5265766572743a20596f75206e65656420746f20746f7020796f757220636f6c6044820152741b185d195c985b081e5bdd48189bdc9c9bddc8108d605a1b60648201526084016103ba565b60019250505061110e565b808511156110995760405162461bcd60e51b815260206004820152603160248201527f5265766572743a20746f7020636f6c6c61746572616c206f722052656475636560448201527020616d6f756e7420746f20626f72726f7760781b60648201526084016103ba565b949350505050565b61111e6114b9565b6001600160a01b03811661114857604051631e4fbdf760e01b8152600060048201526024016103ba565b61115181611583565b50565b6001600160a01b038216600090815260036020526040902054829060ff1661118e5760405162461bcd60e51b81526004016103ba90611a5f565b81600081116111af5760405162461bcd60e51b81526004016103ba90611a96565b6111b76105b9565b3360009081526004602090815260408083206001600160a01b0388168452909152902054156112285760405162461bcd60e51b815260206004820181905260248201527f5265766572743a20596f7520626f72726f77656420726570617920666972737460448201526064016103ba565b3360009081526005602090815260408083206001600160a01b0388168452909152902054838110156112a75760405162461bcd60e51b815260206004820152602260248201527f5265766572743a20416d6f756e7420746f20776974686472617720696e2068696044820152610ced60f31b60648201526084016103ba565b3360009081526005602090815260408083206001600160a01b0389168452909152812080548692906112da908490611a4c565b909155505060405184815233906001600160a01b038716907f07b5e730d86800ad649baffc0308439b303251779d82dd3df0dc707fc0c35d6f9060200160405180910390a37f00000000000000000000000000000000000000000000000000000000000000006001600160a01b0316856001600160a01b0316036114a8573360009081526005602090815260408083206001600160a01b0389168452909152812060010154600754670de0b6b3a76400009061139690856119fa565b6113a09190611a11565b6113aa9190611a4c565b9050801561145d576007543360009081526005602090815260408083206001600160a01b038b168452909152902054670de0b6b3a7640000916113ec916119fa565b6113f69190611a11565b3360009081526005602090815260408083206001600160a01b038b16845290915290206001015560065461142b908290611a4c565b6006556114587f0000000000000000000000000000000000000000000000000000000000000000826115d3565b6114a6565b604051639ea01b7760e01b815260206004820152601860248201527f6e6f20696e746572657374206163636f6d6d756c61746564000000000000000060448201526064016103ba565b505b6114b285856115d3565b5050505050565b6000546001600160a01b03163314610a9c5760405163118cdaa760e01b81523360048201526024016103ba565b6040516001600160a01b0384811660248301528381166044830152606482018390526108179186918216906323b872dd906084015b604051602081830303815290604052915060e01b6020820180516001600160e01b0383818316178352505050506116ab565b6040516001600160a01b0383811660248301526044820183905261157e91859182169063a9059cbb9060640161151b565b505050565b600080546001600160a01b038381166001600160a01b0319831681178455604051919092169283917f8be0079c531659141344cd1fd0a4f28419497f9722a3daafe3b4186f6b6457e09190a35050565b6040516370a0823160e01b815230600482015281906001600160a01b038416906370a0823190602401602060405180830381865afa158015611619573d6000803e3d6000fd5b505050506040513d601f19601f8201168201806040525081019061163d9190611a33565b101561167e5760405162461bcd60e51b815260206004820152601060248201526f696e7375666669656e742066756e647360801b60448201526064016103ba565b6106846001600160a01b038316338361154d565b600060646116a16050846119fa565b6105b39190611a11565b60006116c06001600160a01b0384168361170e565b905080516000141580156116e55750808060200190518101906116e39190611ad5565b155b1561157e57604051635274afe760e01b81526001600160a01b03841660048201526024016103ba565b6060610dd98383600084600080856001600160a01b031684866040516117349190611af7565b60006040518083038185875af1925050503d8060008114611771576040519150601f19603f3d011682016040523d82523d6000602084013e611776565b606091505b5091509150611786868383611790565b9695505050505050565b6060826117a5576117a0826117ec565b610dd9565b81511580156117bc57506001600160a01b0384163b155b156117e557604051639996b31560e01b81526001600160a01b03851660048201526024016103ba565b5080610dd9565b8051156117fc5780518082602001fd5b604051630a12f52160e11b815260040160405180910390fd5b80356001600160a01b038116811461182c57600080fd5b919050565b60006020828403121561184357600080fd5b610dd982611815565b6000806040838503121561185f57600080fd5b61186883611815565b915061187660208401611815565b90509250929050565b6000806040838503121561189257600080fd5b8235915061187660208401611815565b600080604083850312156118b557600080fd5b6118be83611815565b946020939093013593505050565b6000806000606084860312156118e157600080fd5b833592506118f160208501611815565b91506118ff60408501611815565b90509250925092565b6000806000806080858703121561191e57600080fd5b8435935061192e60208601611815565b93969395505050506040820135916060013590565b6020808252601f908201527f5265766572742061646472657373207a65726f206e6f7420616c6c6f77656400604082015260600190565b805169ffffffffffffffffffff8116811461182c57600080fd5b600080600080600060a086880312156119ac57600080fd5b6119b58661197a565b94506020860151935060408601519250606086015191506119d86080870161197a565b90509295509295909350565b634e487b7160e01b600052601160045260246000fd5b80820281158282048414176105b3576105b36119e4565b600082611a2e57634e487b7160e01b600052601260045260246000fd5b500490565b600060208284031215611a4557600080fd5b5051919050565b818103818111156105b3576105b36119e4565b60208082526017908201527f5265766572743a206e6f742077686974656c6973746564000000000000000000604082015260600190565b60208082526012908201527114995d995c9d0e9e995c9bc8185b5bdd5b9d60721b604082015260600190565b808201808211156105b3576105b36119e4565b600060208284031215611ae757600080fd5b81518015158114610dd957600080fd5b6000825160005b81811015611b185760208186018101518583015201611afe565b50600092019182525091905056fea2646970667358221220bd3bc0bcf71c9b88f23e38fbc285dd814083f7f125d6242d38b6a0ef6902480d64736f6c63430008140033",
    "linkReferences": {}
  },
  "methodIdentifiers": {
    "BORROW_RATE()": "602839db",
    "COLLATERAL_FACTOR()": "17f49e05",
    "LIQUIDATION_FACTOR()": "dcdb0c03",
    "LIQUIDATION_REWARDS()": "d1c41d50",
    "borrow(uint256,address)": "4b3fd148",
    "borrowAllowed(uint256,address,uint256,uint256)": "e782e68d",
    "deposit(address,uint256)": "47e7ef24",
    "echidna_test_All()": "4c87cdd9",
    "getUSDvalue(uint256,address)": "372d4ff8",
    "liquidate(address,address)": "86b9d81f",
    "liquidateAllowed(uint256,address,address)": "8bcede84",
    "owner()": "8da5cb5b",
    "renounceOwnership()": "715018a6",
    "repay(uint256,address)": "acb70815",
    "rewards()": "9ec5a894",
    "summerToken()": "f9ddf50d",
    "tokenToChainlinkPriceFeed(address)": "1e6ce634",
    "transferOwnership(address)": "f2fde38b",
    "uSDToken()": "694f86f7",
    "updateRewards()": "3e158b0c",
    "userBorrow(address,address)": "8dc87660",
    "userDeposit(address,address)": "8629b6b2",
    "whitelistToken(address,address)": "364f01a6",
    "withdraw(address,uint256)": "f3fef3a3"
  },
  "id": 10
}